:020000040800F2
:2000000010240020D10F0008A70F0008A90F0008AB0F0008AD0F0008AF0F000800000000DA
:20002000000000000000000000000000B10F0008B30F000800000000B50F0008B70F000894
:20004000ED0F0008F10F0008F50F0008F90F0008FD0F00080110000805100008091000080D
:200060000D1000081110000815100008191000081D100008211000082510000829100008E8
:200080002D1000083110000835100008391000083D100008411000084510000849100008C8
:2000A0004D1000085110000855100008591000085D100008611000086510000869100008A8
:2000C0006D1000087110000875100008791000087D10000881100008851000088910000888
:2000E0008D1000089110000895100008991000089D100008A1100008A5100008A910000868
:20010000AD100008B1100008B5100008B9100008BD100008C1100008C5100008C910000847
:20012000CD100008D1100008D5100008D9100008DD100008E1100008E5100008E910000827
:20014000ED100008F1100008F5100008F9100008FD10000801110008051100080911000804
:200160000D1100081111000815110008191100081D110008211100082511000829110008DF
:200180002D11000800B583B001211A2000F06CF90121012000F077F98020009002208DF806
:2001A000040003208DF8050000208DF8060000208DF8070000A9A94800F078F90C220721E6
:2001C000A64800F0D5F94FF6F370009000A9A44800F06CF90C220021A14800F0C9F90C2239
:2001E00001219F4800F0C4F90C2204219C4800F0BFF90C2205219A4800F0BAF90C2206213C
:20020000974800F0B5F90C220721954800F0B0F90C220821924800F0ABF90C2209219048A0
:2002200000F0A6F90C220A218D4800F0A1F90C220B218B4800F09CF90C220C21884800F0AA
:2002400097F90C220D21864800F092F90C220E21834800F08DF90C220F21814800F088F933
:200260004FF6FC70009000A97E4800F01FF90C2202217C4800F07CF90C220321794800F049
:2002800077F90C220421774800F072F90C220521744800F06DF90C220621724800F068F9BB
:2002A0000C2207216F4800F063F90C2208216D4800F05EF90C2209216A4800F059F90C2218
:2002C0000A21684800F054F90C220B21654800F04FF90C220C21634800F04AF90C220D2132
:2002E000604800F045F90C220E215E4800F040F90C220F215B4800F03BF900F005F800F0FA
:200300003BF800F073F807BD00B597B0022000900020019002200290012003900020049010
:20032000002005900020069000200790022008900420099010200A9000200B9000200C90E3
:2003400000200D9000200E9000200F904FF48050109000201190002012900020139000A8C2
:20036000149000A8159007A800F040F90121002000F0ACF917B000BD00B597B00A200090A3
:200380000120019007200290012003900020049000200590002006900220079002200890AC
:2003A0000820099010200A9000200B9000200C904FF400700D9000200E9000200F904FF42B
:2003C000805010904FF400501190002012900020139000A8149000A8159007A800F006F9BD
:2003E0000121022000F072F917B000BD00B597B00320009000200190052002900020039010
:2004000000200490002005900020069004200790022008900420099010200A9000200B9006
:2004200000200C9000200D9000200E9000200F904FF4805010900020119000201290002070
:20044000139000A8149000A8159007A800F0CEF80121042000F03AF917B000BD00040240C8
:20046000000C024000100240C9B2002905D00D4A126802430B4B1A6004E00A4A1268824306
:20048000084B1A607047C9B2002905D0064A12680243054B1A6004E0034A12688243024BC9
:2004A0001A6070473038024038380240F0B400220023002400252A00102A4AD20125954002
:2004C0002B000D681D402C009C4240D1056803261700FFB27F00BE40B543056005680E79D8
:2004E0001700FFB27F00BE40354305600D79012D02D00D79022D1AD1856803261700FFB2D6
:200500007F00BE40B543856085684E791700FFB27F00BE4035438560456801269640B54389
:20052000456045688E799640B6B235434560C56803261700FFB27F00BE40B543C560C56822
:20054000CE791700FFB27F00BE403543C560521CB2E7F0BC704702000020136989B20B42E2
:2005600002D00123180001E000231800C0B27047F0B400230024D2B211F00705EDB2AD0060
:2005800012FA05F52B0089B2CD1010EB850589B2CE1010EB8606366A0F2711F0070C5FFAAA
:2005A0008CFC5FEA8C0C17FA0CF7BE432E6289B2CD1010EB85052D6A1D432C0089B2CD1055
:2005C00010EB85052C62F0BC704750F8041B61B150F8042BD30744BFA9F101039A18002365
:2005E00042F8043B091FFAD1EFE77047416882681143C268114302691143426911438269F4
:200600001143C2691143026A1143426A1143826A1143C26A1143026B114302689200B2F127
:20062000C0421160816808290BD101688900B1F1C041096851F0400102689200B2F1C04228
:200640001160416B0968426B526851EA0211426B926851EA0221426BD26851EA0241426B40
:20066000126951EA0251426B526951EA0261426B9269114302689200B2F1C0425160C16AF2
:20068000B1F5804F1AD1816B0968826B526851EA0211826B926851EA0221826B126951EAC0
:2006A0000251826B526951EA0261826B926911430268DFF84C3043F8221006E00168DFF815
:2006C00040207FF0704342F821307047C9B200290AD08200B2F1C042126852F0010283006F
:2006E000B3F1C0431A600AE08200B2F1C0421268DFF810301A408300B3F1C0431A60704782
:20070000040100A0FEFF0F00DFF8E4010068002809D5DFF8E001DFF8E0110160DFF8D40171
:20072000DFF8D81101607047F8B504000D0000260827EDB2002D02D10020060010E0EDB27A
:20074000012D03D14FF48070060009E0EDB2022D03D14FF40070060002E04FF4407006003F
:2007600000F0DAF80700FFB2082F3AD1DFF88001006830F44070DFF878110860DFF8700119
:2007800000683043DFF868110860DFF86401006830F0F800DFF858110860DFF854010068CE
:2007A00054F002010843DFF848110860DFF84001006850F48030DFF83811086000F0ACF87F
:2007C0000700DFF82C01006830F00200DFF820110860DFF81C01006830F0F800DFF81011A8
:2007E00008603800C0B2F2BD70B504000D00082600F092F80600F6B2082E1BD13C4800689E
:2008000030F440703A4908603948006850F40070374908603648006850F001003449086088
:20082000256000F079F8060031480068400840002F4908603000C0B270BD31480068C0070C
:2008400005D53048304901602E4830490160704770B504000D00082600F05EF80600F6B20D
:20086000082E0DD1EDB2002D05D029480088A0432749088004E026480088204324490880BD
:2008800070BD10B508241E48007850F002001C49087000F041F804002000C0B210BD1C484D
:2008A000008880B270471B4908607047082019490968C90302D50121080017E015490968B6
:2008C000C90602D50521080010E01249096811F0EF0F02D00621080008E00E490968890748
:2008E00002D50721080001E008210800C0B27047103C0240043C024023016745AB89EFCDE6
:20090000143C0240083C02403B2A19087F6E5D4C163C02400C3C024080B508208DF80000A3
:20092000FFF7C4FF8DF800009DF80000012804D1FFF7BCFF8DF80000F6E79DF8000002BD7F
:2009400080B5FFF7E1FEF320FFF7ADFF01BD70B5040008250026644800F06BF805002E006C
:20096000592E09D202213000FFF7DEFE082801D0012002E00836F3E7002070BDF8B50400D6
:200980000D001600002700200700B6B2B74219D220685649884215D255F827102068FFF7C0
:2009A00023FF08280CD12068006855F82710884201D0022007E02068001D20607F1CE4E765
:2009C000012000E00020F2BD10B50824464800F030F80400FFF763FFE108084140F6FF717C
:2009E000E2081141884201D1012000E0002010BD00B583B008200190022000903A4800F06C
:200A000018F8019040F6FF700121019AD2089140401A401C0090FFF710FF00210098FFF72E
:200A200017FFFFF72EFF082801D0022000E001200EBD01002C48814204D2B1F1006F01D39B
:200A4000002050E02A48814204D22748814201D3082048E02748814204D22548814201D3D9
:200A6000102040E02448814204D22248814201D3182038E02148814204D21F48814201D3D0
:200A8000202030E01E48814204D21C48814201D3282028E01B48814204D21948814201D3C8
:200AA000302020E01848814204D21648814201D3382018E01548814204D21348814201D3C0
:200AC000402010E01248814204D21048814201D3482008E00F48814204D20D48814201D3B8
:200AE000502000E05820704700400008FCFF0F080080000800C000080000010800000208BA
:200B000000000408000006080000080800000A0800000C0800000E0800B583B0012108203D
:200B2000FFF7A2FC0820009001208DF8040000208DF8060003208DF8050000208DF80700BB
:200B400000A9DFF87C01FFF7B1FC01210820FFF78BFC4020009000208DF8040000208DF8F0
:200B6000060003208DF8050001208DF8070000A9DFF84C01FFF79AFC07BD80B5FFF7CCFF02
:200B8000DFF8400108210180DFF838014021018000F013F801BD01B481B0002000900198B9
:200BA00042F6E061484300900098002803D00098401E0090F8E702B0704780B5DFF808012B
:200BC000082101805FF0C840F0210180DFF8F400082101804021DFF8E800FFF7BCFC002817
:200BE00003D10120FFF7D7FFF4E701BD38B504000D0040213248FFF7AEFC0028F9D03348B6
:200C0000AA2101803248552101803048A021018014F1C840058031BD30B42B4C08252580B0
:200C2000002423009BB289B28B4207D210F1C84424881480921C801C9B1CF3E7214C08257D
:200C4000258030BC7047204908220A801F49AA220A801F4955220A801C4980220A801B4913
:200C6000AA220A801A4955220A8010F1C84130220A80144908220A80704770B504000D00D6
:200C8000160040210E48FFF766FC002803D10A20FFF781FFF5E7FFF790FF0B480821018035
:200CA000AD1E280080B2002806D031882000FFF79DFFB61CA41CF3E702480821018070BD19
:200CC000000C0240180C02401A0C0240AA0A00645405006401B481B000200090019842F6BC
:200CE000E061484300900098002803D00098401E0090F8E702B070473EB5FFF765FE0028C3
:200D000001D1FFF775FE3D480068040042F21170844223D33A48844220D24FF48060B4FB2A
:200D2000F0F101FB1041002918D13648FFF70FFE0020050033480090A5420FD2324A4FF43B
:200D4000806115F58030FFF767FF4FF480722E4900A8FFF713FE15F58065EDE72B480021EA
:200D600001805FF40010FFF76EFF0020ADF804000020ADF806000020ADF8080001AA0621F9
:200D80005FF40010FFF779FF4FF480415FF0006000F044F837BD00B583B06420FFF79AFFB4
:200DA000FFF7CEFDFFF7EEF9FFF7E7FE00AA06215FF40010FFF730FF1448BDF800100180BF
:200DC0000E48BDF804104180BDF802000B4908800E480088022801D1FFF78EFF0C480D4999
:200DE000096801600C480A49096801600548006880F30888084800688047FEE70804002060
:200E000040420F0000400008000000200C040020040400200440000800040020024A0A407B
:200E20000243024B1A60704780FFFF1F08ED00E080B53F48006850F001003D4908603D48A5
:200E4000002101603A4800683B490840384908603A483B4901603648006830F480203449E3
:200E6000086038480021016000F005F836485FF00061016001BD82B000200190002000903B
:200E80002B48006850F48030294908602848006810F4003000900198401C019000980028C7
:200EA00003D10198B0F5A06FF0D121480068800302D50120009001E0002000900098012822
:200EC00032D11C481B49096801601A48006850F40040184908601748006850F4A050154905
:200EE00008601648194901601148006850F080700F4908600E4800688001FBD5144840F21B
:200F0000037101600B48006880088000094908600848006850F00200064908600548006819
:200F200010F00C000828F9D102B07047000000000038024008380240FFFFF6FE04380240D6
:200F4000103000240C38024008ED00E0193C4005003C024010B5074979441831064C7C448D
:200F6000163404E00A68081D511888470146A142F8D110BD08000000140000004FF6FFFF55
:200F80001004000000000020000000000120C046002801D0FFF7DEFF0020FFF7FCFE00F02A
:200FA00000F800F009B87047FEE7FEE7FEE7FEE770477047704770470746384600F002F8AC
:200FC000FBE7000001491820ABBEFBE7260002000148804701480047310E0008E10F00085B
:200FE000C046C046C046C046FFF7D0FFFFF7FEBFFFF7FEBFFFF7FEBFFFF7FEBFFFF7FEBF95
:20100000FFF7FEBFFFF7FEBFFFF7FEBFFFF7FEBFFFF7FEBFFFF7FEBFFFF7FEBFFFF7FEBF38
:20102000FFF7FEBFFFF7FEBFFFF7FEBFFFF7FEBFFFF7FEBFFFF7FEBFFFF7FEBFFFF7FEBF18
:20104000FFF7FEBFFFF7FEBFFFF7FEBFFFF7FEBFFFF7FEBFFFF7FEBFFFF7FEBFFFF7FEBFF8
:20106000FFF7FEBFFFF7FEBFFFF7FEBFFFF7FEBFFFF7FEBFFFF7FEBFFFF7FEBFFFF7FEBFD8
:20108000FFF7FEBFFFF7FEBFFFF7FEBFFFF7FEBFFFF7FEBFFFF7FEBFFFF7FEBFFFF7FEBFB8
:2010A000FFF7FEBFFFF7FEBFFFF7FEBFFFF7FEBFFFF7FEBFFFF7FEBFFFF7FEBFFFF7FEBF98
:2010C000FFF7FEBFFFF7FEBFFFF7FEBFFFF7FEBFFFF7FEBFFFF7FEBFFFF7FEBFFFF7FEBF78
:2010E000FFF7FEBFFFF7FEBFFFF7FEBFFFF7FEBFFFF7FEBFFFF7FEBFFFF7FEBFFFF7FEBF58
:20110000FFF7FEBFFFF7FEBFFFF7FEBFFFF7FEBFFFF7FEBFFFF7FEBFFFF7FEBFFFF7FEBF37
:10112000FFF7FEBFFFF7FEBFFFF7FEBFFFF7FEBFF3
:2040000068D5012019FD03080DFD03080FFD030815FD030811FD030813FD030817FD030885
:2040200017FD030817FD030817FD030817FD030817FD030817FD03081BC8030881C8020885
:20404000E9D60208F3D60208FDD6020807D7020811D702081BD7020825D702082FD70208FB
:2040600039D7020843D702084DD7020857D7020861D702086BD7020875D702087FD7020858
:2040800089D7020893D702089DD70208A7D70208B1D70208BBD70208C5D70208CFD70208B8
:2040A000D9D70208E3D70208EDD70208F7D7020801D802080BD8020815D802081FD8020814
:2040C00029D8020833D802083DD8020847D8020851D802085BD8020865D802086FD8020870
:2040E00079D8020883D802088DD8020897D80208A1D80208ABD80208B5D80208BFD80208D0
:20410000C9D80208D3D80208DDD80208E7D80208F1D80208FBD8020805D902080FD902082D
:2041200019D9020823D902082DD9020837D9020841D902084BD9020855D902085FD9020887
:2041400069D9020873D902087DD9020887D9020891D902089BD90208A5D90208AFD90208E7
:20416000B9D90208C3D90208CDD90208D7D90208E1D90208EBD90208F5D90208FFD9020847
:2041800009DA020800B583B0012104201AF08EFD0820009001208DF8040000208DF8060062
:2041A00003208DF8050000208DF8070000A9DFF8680C1AF0FBFD07BD80B5FFF7E3FFDFF808
:2041C0005C0C0821018001BD10B584B001A8009002AB00224FF4FA71DFF8BC0A1AF0C2FEF9
:2041E000DFF8D8080421018000200400A4B2FF2C19DCA4B2A00010F1D04000210180A4B2C9
:20420000DFF8BC08002120F82410A4B2DFF8B408002120F82410A4B2DFF8AC08002120F826
:204220002410641CE2E700BF00BF00BF00BF00BF00BF00BF00BF00BF00BF00BF00BF00BF4E
:2042400000BF00BF00BF00BF00BF00BF00BF00BF00BF00BF00BF00BF00BF00BF00BF00BF6E
:2042600000BF00BF00BF00BF00BF00BF00BF00BF00BF00BF00BF00BF00BFDFF85008042137
:20428000018001AA0021DFF8100A1AF02CFF1BF089F901A8009002AB00224FF4FA71DFF891
:2042A000F8091AF05FFEDFF814080421018000200400A4B2FF2C19DCA4B2A00010F1D0405C
:2042C00000210180A4B2DFF8F807002120F82410A4B2DFF8F007002120F82410A4B2DFF8E5
:2042E000E807002120F82410641CE2E700BF00BF00BF00BF00BF00BF00BF00BF00BF00BFA3
:2043000000BF00BF00BF00BF00BF00BF00BF00BF00BF00BF00BF00BF00BF00BF00BF00BFAD
:2043200000BF00BF00BF00BF00BF00BF00BF00BF00BF00BF00BF00BF00BF00BF00BF00BF8D
:20434000DFF888070421018001AA0021DFF848091AF0C9FE1BF026F91FBD000070B584B02D
:2043600004000D0001A8009002AB00224FF4FA71DFF8080D1AF0F6FD01A8009002AB002285
:204380004FF4FA71DFF810091AF0ECFDDFF82C0704210180E4B22000213803D0401E012873
:2043A00062D998E0DFF8F40800784A281ED000200600B6B2FF2E56DCB6B2ADB2A819DFF853
:2043C000E01831F81000B6B2B10011F1D0410880B6B2ADB2A819DFF8CC1831F81000B6B214
:2043E000DFF8DC1621F82600761CE2E700200600B6B2FF2E37DCB6B2ADB2A819DFF8A01875
:2044000031F810000002B6B2B10011F1D0410880B6B2ADB2A819DFF88C1831F8100000026F
:20442000B6B2DFF89C1621F82600B6B2ADB2A819DFF86C1831F8100080B2000AB6B2DFF8B5
:20444000841621F82600B6B2ADB2A819DFF8541831F8100080B2000AB6B2DFF86C1621F869
:204460002600761CC4E736E000200600B6B2FF2E31DCB6B2ADB2A819DFF8241831F8100027
:20448000B6B2B10011F1D0410880B6B2ADB2A819DFF8101831F81000B6B2DFF8241621F816
:2044A0002600B6B2ADB2A819DFF8FC1731F81000B6B2DFF8101621F82600B6B2ADB2A819FF
:2044C000DFF8E81731F81000B6B2DFF8FC1521F82600761CCAE700BF00BF00BF00BF00BF40
:2044E00000BF00BF00BF00BF00BF00BF00BF00BF00BF00BF00BF00BF00BF00BF00BF00BFCC
:2045000000BF00BF00BF00BF00BF00BF00BF00BF00BF00BF00BF00BF00BF00BF00BF00BFAB
:2045200000BF00BF00BF00BF00BFDFF8A0050421018001AA0021DFF860071AF0D4FD01AA0E
:204540000021DFF8380B1AF0CEFD7FBDFEB507000C0001A8009002AB00224FF4FA71DFF8BC
:204560001C0B1AF0FFFC01A8009002AB00224FF4FA71DFF824071AF0F5FCDFF8400504211B
:204580000180FFB23800213803D0401E012833D98CE0EE200600DFF8880800210180DFF892
:2045A000840800210180DFF8800800210180DFF87C080021018000200500ADB2B6B2B542EC
:2045C00019D2ADB2A4B26019DFF8D41631F81000ADB2DFF85C1821F82500ADB2A4B26019B2
:2045E000DFF8C01631F81000ADB2DFF8481821F825006D1CE1E759E0DE200600DFF838085C
:2046000000210180DFF8340800210180DFF8300800210180DFF82C0800210180DFF82808DE
:2046200000210180DFF8240800210180DFF8200800210180DFF81C080021018000200500D0
:20464000ADB2B6B2B54231D2ADB2A4B26019DFF8501631F81000ADB2DFF8FC1721F825006E
:20466000ADB2A4B26019DFF83C1631F81000ADB2DFF8E81721F82500ADB2A4B26019DFF832
:20468000281631F81000ADB2DFF8D41721F82500ADB2A4B26019DFF8141631F81000ADB27D
:2046A000DFF8C01721F825006D1CC9E700BF00BF00BF00BF00BF00BF00BF00BF00BF00BF5F
:2046C00000BF00BF00BF00BF00BF00BF00BF00BF00BF00BF00BF00BF00BF00BF00BF00BFEA
:2046E00000BF00BF00BF00BF00BF00BF00BF00BF00BF00BF00BF00BF00BF00BF00BF00BFCA
:20470000DFF8C8030421018001AA0021DFF888051AF0E9FC01AA0021DFF860091AF0E3FC3D
:20472000F7BD0000FEB507000C0001A8009002AB00224FF4FA71DFF844091AF013FC01A863
:20474000009002AB00224FF4FA71DFF84C051AF009FCDFF8680304210180FFB238002138EB
:2047600003D0401E012833D98CE0CA200600DFF8B00600210180DFF8AC0600210180DFF846
:20478000A80600210180DFF8A4060021018000200500ADB2B6B2B54219D2ADB2A4B26019AA
:2047A000DFF8FC1431F81000ADB2DFF8841621F82500ADB2A4B26019DFF8E81431F8100091
:2047C000ADB2DFF8701621F825006D1CE1E759E0B2200600DFF8600600210180DFF85C0665
:2047E00000210180DFF8580600210180DFF8540600210180DFF8500600210180DFF84C0675
:2048000000210180DFF8480600210180DFF844060021018000200500ADB2B6B2B54231D286
:20482000ADB2A4B26019DFF8781431F81000ADB2DFF8241621F82500ADB2A4B26019DFF8FB
:20484000641431F81000ADB2DFF8101621F82500ADB2A4B26019DFF8501431F81000ADB20C
:20486000DFF8FC1521F82500ADB2A4B26019DFF83C1431F81000ADB2DFF8E81521F8250013
:204880006D1CC9E700BF00BF00BF00BF00BF00BF00BF00BF00BF00BF00BF00BF00BF00BF6D
:2048A00000BF00BF00BF00BF00BF00BF00BF00BF00BF00BF00BF00BF00BF00BF00BF00BF08
:2048C00000BF00BF00BF00BF00BF00BF00BF00BF00BF00BF00BF00BF7C480421018001AACF
:2048E0000021DFF8B4031AF0FEFB01AA0021DFF88C071AF0F8FBF7BDFEB507000C0001A8B0
:20490000009002AB00224FF4FA71DFF870071AF029FB01A8009002AB00224FF4FA71DE4832
:204920001AF020FB654804210180FFB23800213803D0401E012831D986E0DA200600DFF81C
:20494000A40900210180DFF8A00900210180DFF89C0900210180DFF898090021018000208E
:204960000500ADB2B6B2B54217D2ADB2A4B26019CB4931F81000ADB2DFF8781921F825000B
:20498000ADB2A4B26019C74931F81000ADB2DFF8681921F825006D1CE3E755E0D22006002B
:2049A000DFF8580900210180DFF8540900210180DFF8500900210180DFF84C0900210180A7
:2049C000DFF8480900210180DFF8440900210180DFF8400900210180DFF84C0A00210180B6
:2049E00000200500ADB2B6B2B5422DD2ADB2A4B26019AB4931F81000ADB2DFF8301A21F8E1
:204A00002500ADB2A4B26019A64931F81000ADB2DFF81C1A21F82500ADB2A4B26019A24958
:204A200031F81000ADB2DFF80C1A21F82500ADB2A4B260199D4931F81000ADB2DFF8F8190F
:204A400021F825006D1CCDE700BF00BF00BF00BF00BF00BF00BF00BF00BF00BF00BF00BFE7
:204A600000BF00BF00BF00BF00BF00BF00BF00BF00BF00BF00BF00BF00BF00BF00BF00BF46
:204A800000BF00BF00BF00BF00BF00BF00BF00BF00BF00BF00BF00BF00BF00BF0B4804212C
:204AA000018001AA00217C481AF01DFB01AA0021DFF8C8051AF017FBF7BD00001A0C02401B
:204AC000001000680200006802100068180C0240FEB507000C0001A8009002AB00224FF403
:204AE000FA71DFF898051AF03DFA01A8009002AB00224FF4FA7168481AF034FADFF8440AD3
:204B000004210180FFB23800213803D0401E012831D986E0DA200600DFF8C807002101809B
:204B2000DFF8C40700210180DFF8C00700210180DFF8BC070021018000200500ADB2B6B2C9
:204B4000B54217D2ADB2A4B26019554931F81000ADB2DFF8A01721F82500ADB2A4B2601917
:204B6000504931F81000ADB2DFF88C1721F825006D1CE3E755E0D2200600DFF8800700214D
:204B80000180DFF87C0700210180DFF8780700210180DFF8740700210180DFF8700700213D
:204BA0000180DFF86C0700210180DFF8680700210180DFF874080021018000200500ADB227
:204BC000B6B2B5422DD2ADB2A4B26019344931F81000ADB2DFF8541821F82500ADB2A4B2FE
:204BE0006019304931F81000ADB2DFF8441821F82500ADB2A4B260192B4931F81000ADB280
:204C0000DFF8301821F82500ADB2A4B26019274931F81000ADB2DFF8201821F825006D1C2B
:204C2000CDE700BF00BF00BF00BF00BF00BF00BF00BF00BF00BF00BF00BF00BF00BF00BF8F
:204C400000BF00BF00BF00BF00BF00BF00BF00BF00BF00BF00BF00BF00BF00BF00BF00BF64
:204C600000BF00BF00BF00BF00BF00BF00BF00BF00BF00BF00BFDFF8D0080421018001AAFF
:204C8000002105481AF02FFA01AA0021DFF8EC031AF029FAF7BD000014B0012046B50120FF
:204CA00064440020646400206484002064A40020FEB507000C0001A8009002AB00224FF403
:204CC000FA71EE481AF04EF901A8009002AB00224FF4FA71DFF870091AF044F9DFF8640852
:204CE00004210180FFB238002138022859D8DA200600DFF8F00500210180DFF8EC0500211A
:204D00000180DFF8E80500210180DFF8E40500210180DFF8380900210180DFF8340900215B
:204D20000180DFF8300900210180DFF82C090021018000200500ADB2B6B2B54231D2ADB24D
:204D4000A4B26019DFF8141931F81000ADB2DFF8A41521F82500ADB2A4B26019DFF80019FC
:204D600031F81000ADB2DFF8901521F82500ADB2A4B26019DFF8EC1831F81000ADB2DFF869
:204D8000E81821F82500ADB2A4B26019DFF8DC1831F81000ADB2DFF8D81821F825006D1CB6
:204DA000C9E700BF00BF00BF00BF00BF00BF00BF00BF00BF00BF00BF00BF00BF00BF00BF12
:204DC00000BF00BF00BF00BF00BF00BF00BF00BF00BF00BF00BF00BF00BF00BF00BF00BFE3
:204DE00000BF00BF00BF00BF00BF00BF00BF00BF00BF00BF00BFDFF850070421018001AAFF
:204E00000021DFF844081AF06EF901AA00219B481AF069F9F7BD0000000802401808024062
:204E200040000068401000684400006844100068480000684810006880000068801000685A
:204E40008400006884100068820000688210006886000068861000688800006888100068AA
:204E60008A0000688A100068FEB507000C0001A8009002AB00224FF4FA7180481AF072F886
:204E800001A8009002AB00224FF4FA71DFF8B8071AF068F8DFF8AC0604210180FFB2380044
:204EA000213803D0401E01285BD9ADE0DA200600DFF8300400210180DFF82C040021018028
:204EC000DFF8280400210180DFF8240400210180DFF8780700210180DFF8740700210180A0
:204EE000DFF8700700210180DFF86C070021018000200500ADB2B6B2B54231D2ADB2A4B23B
:204F00006019DFF8581731F81000ADB2DFF8E41321F82500ADB2A4B26019DFF8441731F8A5
:204F20001000ADB2DFF8D01321F82500ADB2A4B26019DFF8301731F81000ADB2DFF8281710
:204F400021F82500ADB2A4B26019DFF8201731F81000ADB2DFF8181721F825006D1CC9E7C2
:204F600052E0D2200600E54800210180E44800210180E44800210180E34800210180E348A4
:204F800000210180E24800210180E24800210180DFF894040021018000200500ADB2B6B2DA
:204FA000B54231D2ADB2A4B26019DFF8B01631F81000ADB2DFF8741421F82500ADB2A4B242
:204FC0006019DFF89C1631F81000ADB2DFF8601421F82500ADB2A4B26019DFF8881631F8E2
:204FE0001000ADB2DFF84C1421F82500ADB2A4B26019DFF8781631F81000ADB2DFF838147F
:2050000021F825006D1CC9E700BF00BF00BF00BF00BF00BF00BF00BF00BF00BF00BF00BF25
:2050200000BF00BF00BF00BF00BF00BF00BF00BF00BF00BF00BF00BF00BF00BF00BF00BF80
:2050400000BF00BF00BF00BF00BF00BF00BF00BF00BF00BF00BF00BF00BF00BFDFF8E8041B
:205060000421018001AA0021DFF8DC051AF03BF801AA002101481AF036F8F7BDDCB001201B
:20508000FEB507000C0001A8009002AB00224FF4FA71DFF8DC0619F065FF01A8009002AB88
:2050A00000224FF4FA71DFF8A00519F05BFFDFF8940404210180FFB238002138022859D88F
:2050C000EE200600DFF8AC0600210180DFF8A80600210180DFF8A40600210180DFF8A006CA
:2050E00000210180DFF89C0600210180DFF8980600210180DFF8940600210180DFF890065C
:205100000021018000200500ADB2B6B2B54231D2ADB2A4B26019DFF8441531F81000ADB211
:20512000DFF8701621F82500ADB2A4B26019DFF8301531F81000ADB2DFF85C1621F825006B
:20514000ADB2A4B26019DFF81C1531F81000ADB2DFF8481621F82500ADB2A4B26019DFF809
:205160000C1531F81000ADB2DFF8341621F825006D1CC9E700BF00BF00BF00BF00BF00BF64
:2051800000BF00BF00BF00BF00BF00BF00BF00BF00BF00BF00BF00BF00BF00BF00BF00BF1F
:2051A00000BF00BF00BF00BF00BF00BF00BF00BF00BF00BF00BF00BF00BF00BF00BF00BFFF
:2051C00000BF00BF00BF00BFDFF87C030421018001AA0021DFF8700419F085FF01AA002167
:2051E000DFF88C0519F07FFFF7BD000070B584B004000D0001A8009002AB00224FF4FA71EC
:20520000DFF86C0519F0AEFE01A8009002AB00224FF4FA71DFF8300419F0A4FEC9480421EF
:205220000180E4B2212C23D1DFF8780500784A281ED000200600B6B2FF2E19DCB6B2ADB273
:20524000A819DFF8201431F81000B6B2DFF8581521F82600B6B2ADB2A819DFF8101431F8B2
:205260001000B6B2DFF8441521F82600761CE2E700BF00BF00BF00BF00BF00BF00BF00BFF4
:2052800000BF00BF00BF00BF00BF00BF00BF00BF00BF00BF00BF00BF00BF00BF00BF00BF1E
:2052A00000BF00BF00BF00BF00BF00BF00BF00BF00BF00BF00BF00BF00BF00BF00BF00BFFE
:2052C00000BF00BFA0480421018001AA0021DFF8780319F008FF01AA0021DFF8940419F050
:2052E00002FF7FBD900000689010006894000068941000689800006898100068B000006841
:20530000B0100068B4000068B4100068B2000068B2100068B6000068FEB504000D0001A84E
:20532000009002AB00224FF4FA71DFF8440419F019FE01A8009002AB00224FF4FA71DFF894
:20534000080319F00FFE7F4804210180E4B2212C31D1EE200700DFF82C0400210180DFF845
:20536000280400210180DFF8240400210180DFF820040021018000200600B6B2BFB2BE4222
:2053800019D2B6B2ADB2A819DFF8D81231F81000B6B2DFF8081421F82600B6B2ADB2A8197E
:2053A000DFF8C81231F81000B6B2DFF8F41321F82600761CE1E700BF00BF00BF00BF00BF69
:2053C00000BF00BF00BF00BF00BF00BF00BF00BF00BF00BF00BF00BF00BF00BF00BF00BFDD
:2053E00000BF00BF00BF00BF00BF00BF00BF00BF00BF00BF00BF00BF00BF00BF00BF00BFBD
:2054000000BF00BF00BF00BF00BF4F480421018001AA00218C4819F066FE01AA0021DFF8E4
:20542000500319F060FEF7BDB6100068B8000068B8100068BA000068BA100068FEB5040075
:205440000D0001A8009002AB00224FF4FA71DFF8200319F087FD01A8009002AB00224FF4B7
:20546000FA71794819F07EFD364804210180E4B2212C2FD1CA200700DFF808030021018000
:20548000DFF8040300210180DFF8000300210180DFF8FC020021018000200600B6B2BFB29A
:2054A000BE4217D2B6B2ADB2A8196E4931F81000B6B2DFF8E81221F82600B6B2ADB2A8198B
:2054C0006A4931F81000B6B2DFF8D41221F82600761CE3E700BF00BF00BF00BF00BF00BFA6
:2054E00000BF00BF00BF00BF00BF00BF00BF00BF00BF00BF00BF00BF00BF00BF00BF00BFBC
:2055000000BF00BF00BF00BF00BF00BF00BF00BF00BF00BF00BF00BF00BF00BF00BF00BF9B
:2055200000BF00BF00BF00BF07480421018001AA0021454819F0D7FD01AA00218C4819F09B
:20554000D2FDF7BD1A0C0240180C0240FEB504000D0001A8009002AB00224FF4FA718448B4
:2055600019F000FD01A8009002AB00224FF4FA71354819F0F7FC8E4804210180E4B2212C97
:2055800029D1DA2007003148002101803048002101803048002101802F4800210180002088
:2055A0000600B6B2BFB2BE4215D2B6B2ADB2A8192C4931F81000B6B22B4921F82600B6B26C
:2055C000ADB2A819294931F81000B6B2284921F82600761CE5E700BF00BF00BF00BF00BFCF
:2055E00000BF00BF00BF00BF00BF00BF00BF00BF00BF00BF00BF00BF00BF00BF00BF00BFBB
:2056000000BF00BF00BF00BF00BF00BF00BF00BF00BF00BF00BF00BF00BF00BF00BF00BF9A
:2056200000BF00BF00BF00BF00BF62480421018001AA0021044819F056FD01AA00214C488B
:2056400019F051FDF7BD000014B00120920000689210006896000068961000686444002082
:2056600064640020648400209A00006864A400209A100068FEB504000D0001A8009002AB54
:2056800000224FF4FA713A4819F06CFC01A8009002AB00224FF4FA71474819F063FC44480E
:2056A00004210180E4B2212C29D1DA200700434800210180424800210180424800210180E1
:2056C00041480021018000200600B6B2BFB2BE4215D2B6B2ADB2A8193C4931F81000B6B20B
:2056E0003B4921F82600B6B2ADB2A819394931F81000B6B2384921F82600761CE5E700BF5F
:2057000000BF00BF00BF00BF00BF00BF00BF00BF00BF00BF00BF00BF00BF00BF00BF00BF99
:2057200000BF00BF00BF00BF00BF00BF00BF00BF00BF00BF00BF00BF00BF00BF00BF00BF79
:2057400000BF00BF00BF00BF00BF00BF00BF00BF00BF18480421018001AA0021164819F059
:20576000C2FC01AA0021024819F0BDFCF7BD0000DCB0012040000068401000684400006826
:20578000441000684200006842100068460000684610006848000068481000684A0000685B
:2057A0004A10006846B5012002000068021000681A0C0240180C024014B00120920000687A
:2057C000921000689600006896100068648400209A00006864A400209A100068FEB50400B8
:2057E0000D0001A8009002AB00224FF4FA71DFF8280E19F0B7FBDFF8240E04210180E4B2D9
:205800002000213805D0401E012841F2D28003F0F8BCDC200700EDB2242D08D0C1F0C780C4
:20582000262D00F07885C0F0BD8201F0C0B8DFF8F00D00780A2190FBF1F080B2C0000600F5
:20584000B6B2DFF8E00D30F81600B90011F1D0410880B6B2DFF8CC0D10EB46004088DFF892
:20586000C81D21F82700B6B2DFF8B80D10EB46008088DFF8B81D21F82700B6B2DFF8A40DDA
:2058800010EB4600C088DFF8A81D21F82700B6B2DFF8900D10EB46000089DFF8981D21F858
:2058A0002700B6B2DFF87C0D10EB46004089DFF8881D21F82700B6B2DFF8680D10EB46003E
:2058C0008089DFF8781D21F82700B6B2DFF8540D10EB4600C089DFF8681D21F82700DFF876
:2058E000640D002120F82710DFF85C0D002120F82710DFF8580D002120F82710DFF8500D37
:20590000002120F82710DFF84C0D002120F82710DFF8440D002120F82710DFF8400D00219A
:2059200020F82710DFF8380D002120F827100837DFF8EC0C00780A2190FBF1F201FB12005F
:2059400080B2C0000600B6B2DFF8D80C30F81600B90011F1D0410880B6B2DFF8C80C10EB8C
:2059600046004088DFF8C01C21F82700B6B2DFF8B40C10EB46008088DFF8B01C21F82700FB
:20598000B6B2DFF8A00C10EB4600C088DFF8A01C21F82700B6B2DFF88C0C10EB460000891F
:2059A000DFF8901C21F82700B6B2DFF8780C10EB46004089DFF8801C21F82700B6B2DFF865
:2059C000640C10EB46008089DFF8701C21F82700B6B2DFF8500C10EB4600C089DFF8601CF2
:2059E00021F82700DFF85C0C002120F82710DFF8580C002120F82710DFF8500C002120F8A1
:205A00002710DFF84C0C002120F82710DFF8440C002120F82710DFF8400C002120F8271086
:205A2000DFF8380C002120F82710DFF8340C002120F827100837DFF82C0C00784B286DD1DD
:205A4000DFF8DC0B8078C0073ED550200600B6B2DFF8D00B30F81600B90011F1D041088094
:205A6000B6B2DFF8C00B10EB46004088DFF8B81B21F82700B6B2DFF8AC0B10EB46008088EA
:205A8000DFF8A81B21F82700B6B2DFF8980B10EB4600C088DFF8981B21F82700DFF8A40B71
:205AA000002120F82710DFF8A00B002120F82710DFF8980B002120F82710DFF8940B002103
:205AC00020F827103F1D67E0B80010F1D04000210180DFF8700B002120F82710DFF8480B7D
:205AE000002120F82710DFF8600B002120F82710DFF8380B002120F82710DFF8500B0021A7
:205B000020F82710DFF8280B002120F82710DFF8400B002120F827103F1D3DE0502006003B
:205B2000B6B2DFF8000B30F81600B90011F1D0410880B6B2DFF8EC0A10EB46004088DFF874
:205B4000E81A21F82700B6B2DFF8D80A10EB46008088DFF8D81A21F82700B6B2DFF8C40A83
:205B600010EB4600C088DFF8C81A21F82700DFF8D40A002120F82710DFF8CC0A002120F898
:205B80002710DFF8C80A002120F82710DFF8C00A002120F827103F1DDFF8840A40780A2100
:205BA00090FBF1F080B2C0000600B6B2DFF8740A30F81600B90011F1D0410880B6B2DFF8F3
:205BC000640A10EB46004088DFF85C1A21F82700B6B2DFF8500A10EB46008088DFF84C1AA2
:205BE00021F82700B6B2DFF83C0A10EB4600C088DFF83C1A21F82700B6B2DFF8280A10EB7E
:205C000046000089DFF82C1A21F82700B6B2DFF8140A10EB46004089DFF81C1A21F82700A4
:205C2000B6B2DFF8000A10EB46008089DFF80C1A21F82700B6B2DFF8EC0910EB4600C089D6
:205C4000DFF8FC1921F82700DFF8F809002120F82710DFF8F409002120F82710DFF8EC09C0
:205C6000002120F82710DFF8E809002120F82710DFF8E009002120F82710DFF8DC0900216F
:205C800020F82710DFF8D409002120F82710DFF8D009002120F827100837DFF88409407816
:205CA0000A2190FBF1F201FB120080B2C0000600B6B2DFF8700930F81600B90011F1D04183
:205CC0000880B6B2DFF85C0910EB46004088DFF8581921F82700B6B2DFF8480910EB460036
:205CE0008088DFF8481921F82700B6B2DFF8340910EB4600C088DFF8381921F82700B6B24F
:205D0000DFF8200910EB46000089DFF8281921F82700B6B2DFF80C0910EB46004089DFF82C
:205D2000181921F82700B6B2DFF8F80810EB46008089DFF8081921F82700B6B2DFF8E40806
:205D400010EB4600C089DFF8F81821F82700DFF8F408002120F82710DFF8EC08002120F84B
:205D60002710DFF8E808002120F82710DFF8E008002120F82710DFF8DC08002120F827105B
:205D8000DFF8D408002120F82710DFF8D008002120F82710DFF8C808002120F8271008376B
:205DA00000F005BEDFF8780800780A2190FBF1F080B2C0000600B80010F1D0400021018067
:205DC000DFF86408002120F82710DFF86008002120F82710DFF85808002120F82710DFF8E3
:205DE0005408002120F82710DFF84C08002120F82710DFF84808002120F82710DFF8400886
:205E0000002120F82710B6B2DFF8180830F81600DFF8301821F82700B6B2DFF8080810EBCC
:205E200046004088DFF8201821F82700B6B2DFF8F40710EB46008088DFF8101821F8270043
:205E4000B6B2DFF8E00710EB4600C088DFF8001821F82700B6B2DFF8CC0710EB4600008988
:205E6000DFF8F01721F82700B6B2DFF8B80710EB46004089DFF8E01721F82700B6B2DFF8AF
:205E8000A40710EB46008089DFF8D01721F82700B6B2DFF8900710EB4600C089DFF8C01701
:205EA00021F827000837DFF8780700780A2190FBF1F201FB120080B2C0000600B80010F13D
:205EC000D04000210180DFF86007002120F82710DFF85807002120F82710DFF85407002169
:205EE00020F82710DFF84C07002120F82710DFF84807002120F82710DFF84007002120F8CC
:205F00002710DFF83C07002120F82710B6B2DFF8140730F81600DFF82C1721F82700B6B266
:205F2000DFF8000710EB46004088DFF81C1721F82700B6B2DFF8EC0610EB46008088DFF8DF
:205F40000C1721F82700B6B2DFF8D80610EB4600C088DFF8FC1621F82700B6B2DFF8C40606
:205F600010EB46000089DFF8EC1621F82700B6B2DFF8B00610EB46004089DFF8DC1621F85D
:205F80002700B6B2DFF89C0610EB46008089DFF8CC1621F82700B6B2DFF8880610EB4600A8
:205FA000C089DFF8BC1621F827000837DFF8B40600784B286DD1DFF868068078C0073ED59F
:205FC00050200600B80010F1D04000210180DFF85806002120F82710DFF85006002120F8D5
:205FE0002710DFF84C06002120F82710B6B2DFF8340630F81600DFF84C1621F82700B6B239
:20600000DFF8200610EB46004088DFF83C1621F82700B6B2DFF80C0610EB46008088DFF8A0
:206020002C1621F82700B6B2DFF8F80510EB4600C088DFF81C1621F827003F1D67E0B80075
:2060400010F1D04000210180DFF8F805002120F82710DFF8D405002120F82710DFF8E80565
:20606000002120F82710DFF8C405002120F82710DFF8D805002120F82710DFF8B4050021CB
:2060800020F82710DFF8C805002120F827103F1D3DE050200600B80010F1D0400021018043
:2060A000DFF88405002120F82710DFF88005002120F82710DFF87805002120F82710B6B218
:2060C000DFF8600530F81600DFF8781521F82700B6B2DFF8500510EB46004088DFF86815B1
:2060E00021F82700B6B2DFF83C0510EB46008088DFF8581521F82700B6B2DFF8280510EBAC
:206100004600C088DFF8481521F827003F1DDFF8100540780A2190FBF1F080B2C0000600EE
:20612000B80010F1D04000210180DFF8FC04002120F82710DFF8F404002120F82710DFF897
:20614000F004002120F82710DFF8E804002120F82710DFF8E404002120F82710DFF8DC04C2
:20616000002120F82710DFF8D804002120F82710B6B2DFF8B00430F81600DFF8C81421F88F
:206180002700B6B2DFF89C0410EB46004088DFF8B81421F82700B6B2DFF8880410EB460001
:2061A0008088DFF8A81421F82700B6B2DFF8740410EB4600C088DFF8981421F82700B6B299
:2061C000DFF8600410EB46000089DFF8881421F82700B6B2DFF84C0410EB46004089DFF897
:2061E000781421F82700B6B2DFF8380410EB46008089DFF8681421F82700B6B2DFF8240414
:2062000010EB4600C089DFF8581421F827000837DFF80C0440780A2190FBF1F201FB1200EC
:2062200080B2C0000600B80010F1D04000210180DFF8F403002120F82710DFF8F0030021D2
:2062400020F82710DFF8E803002120F82710DFF8E403002120F82710DFF8DC03002120F8A0
:206260002710DFF8D803002120F82710DFF8D003002120F82710B6B2DFF8A80330F8160083
:20628000DFF8C01321F82700B6B2DFF8980310EB46004088DFF8B01321F82700B6B2DFF818
:2062A000840310EB46008088DFF8A01321F82700B6B2DFF8700310EB4600C088DFF890138F
:2062C00021F82700B6B2DFF85C0310EB46000089DFF8801321F82700B6B2DFF8480310EBE7
:2062E00046004089DFF8701321F82700B6B2DFF8340310EB46008089DFF8601321F82700AB
:20630000B6B2C84810EB4600C089DFF8541321F8270008374BE3C24800780A2190FBF1F077
:2063200080B2C0000600B6B2BE4830F81600B90011F1D0410880B6B2BA4830F81600C149B3
:2063400021F82700B6B2B74810EB46004088B64921F82700B6B2B34810EB46004088BA49DF
:2063600021F82700B6B2AF4810EB46008088AF4921F82700B6B2AB4810EB46008088B3495D
:2063800021F82700B6B2A74810EB4600C088A84921F82700B6B2A34810EB4600C088AC49DB
:2063A00021F82700B6B29F4810EB46000089A14921F82700B6B29B4810EB46000089A54957
:2063C00021F82700B6B2974810EB460040899A4921F82700B6B2934810EB460040899E49D5
:2063E00021F82700B6B28F4810EB46008089934921F82700B6B28B4810EB46008089974953
:2064000021F82700B6B2874810EB4600C0898C4921F82700B6B2834810EB4600C0899049D0
:2064200021F8270008377E4800780A2190FBF1F201FB120080B2C0000600B6B2794830F8AF
:206440001600B90011F1D0410880B6B2754830F816007C4921F82700B6B2724810EB460007
:206460004088714921F82700B6B26E4810EB46004088754921F82700B6B26A4810EB4600DA
:2064800080886A4921F82700B6B2664810EB460080886E4921F82700B6B2624810EB460058
:2064A000C088634921F82700B6B25E4810EB4600C088674921F82700B6B25A4810EB4600D6
:2064C00000895C4921F82700B6B2564810EB46000089604921F82700B6B2524810EB460052
:2064E0004089554921F82700B6B24E4810EB46004089594921F82700B6B24A4810EB4600D0
:2065000080894E4921F82700B6B2464810EB46008089524921F82700B6B2424810EB46004D
:20652000C089474921F82700B6B23E4810EB4600C0894B4921F8270008374A4800784B283A
:2065400040F0928036488078C00742D550200600B6B2344830F81600B90011F1D0410880B9
:20656000B6B2304830F81600364921F82700B6B22C4810EB460040882B4921F82700B6B23D
:20658000284810EB460040882F4921F82700B6B2244810EB46008088244921F82700B6B298
:2065A000204810EB46008088284921F82700B6B21C4810EB4600C0881D4921F82700B6B216
:2065C000184810EB4600C088214921F827003F1D9BE0B80010F1D040002101801948002164
:2065E00020F827101048002120F827101648002120F827100D48002120F827101348002175
:2066000020F827100A48002120F827101048002120F827103F1D78E014B001201A0C0240A0
:20662000C8B30120D4EE030804000068080000680C0000681000006814000068180000682D
:206640001C0000680010006804100068081000680C1000681010006814100068181000681A
:206660001C10006846B5012050200600B6B2DFF8D80930F81600B90011F1D0410880B6B2DA
:20668000DFF8C40930F81600DFF8D01C21F82700B6B2DFF8B40910EB46004088DFF8C01C5D
:2066A00021F82700B6B2DFF8A00910EB46004088DFF8B01C21F82700B6B2DFF88C0910EBF7
:2066C00046008088DFF8A01C21F82700B6B2DFF8780910EB46008088DFF8901C21F82700CD
:2066E000B6B2DFF8640910EB4600C088DFF8801C21F82700B6B2DFF8500910EB4600C08891
:20670000DFF8481921F827003F1DDFF8680C40780A2190FBF1F080B2C0000600B6B2DFF8D4
:20672000280930F81600B90011F1D0410880B6B2DFF8140930F81600DFF8201C21F82700A9
:20674000B6B2DFF8040910EB46004088DFF8101C21F82700B6B2DFF8F00810EB4600408861
:20676000DFF8001C21F82700B6B2DFF8DC0810EB46008088DFF8F01B21F82700B6B2DFF819
:20678000C80810EB46008088DFF8E01B21F82700B6B2DFF8B40810EB4600C088DFF8D01B88
:2067A00021F82700B6B2DFF8A00810EB4600C088DFF8981821F82700B6B2DFF88C0810EB94
:2067C00046000089DFF8C41D21F82700B6B2DFF8780810EB46000089DFF8B41D21F8270081
:2067E000B6B2DFF8640810EB46004089DFF8A41D21F82700B6B2DFF8500810EB460040896B
:20680000DFF8941D21F82700B6B2DFF83C0810EB46008089DFF8841D21F82700B6B2DFF8EC
:20682000280810EB46008089DFF8741D21F82700B6B2DFF8140810EB4600C089DFF8641DF9
:2068400021F82700B6B2DFF8000810EB4600C089DFF8541D21F827000837DFF8180B4078AE
:206860000A2190FBF1F201FB120080B2C0000600B6B2DFF8D40730F81600B90011F1D04155
:206880000880B6B2DFF8C00730F81600DFF8CC1A21F82700B6B2DFF8B00710EB4600408830
:2068A000DFF8BC1A21F82700B6B2DFF89C0710EB46004088DFF8AC1A21F82700B6B2DFF8E4
:2068C000880710EB46008088DFF89C1A21F82700B6B2DFF8740710EB46008088DFF88C1A93
:2068E00021F82700B6B2DFF8600710EB4600C088DFF87C1A21F82700B6B2DFF84C0710EBEF
:206900004600C088DFF8441721F82700B6B2DFF8380710EB46000089DFF8701C21F827008C
:20692000B6B2DFF8240710EB46000089DFF8601C21F82700B6B2DFF8100710EB4600408930
:20694000DFF8501C21F82700B6B2DFF8FC0610EB46004089DFF8401C21F82700B6B2DFF8B7
:20696000E80610EB46008089DFF8301C21F82700B6B2DFF8D40610EB46008089DFF8201C06
:2069800021F82700B6B2DFF8C00610EB4600C089DFF8101C21F82700B6B2DFF8AC0610EBF9
:2069A0004600C089DFF8001C21F82700083702F028BCD4200700EDB2242D08D0C2F02184E6
:2069C000262D01F04584C0F0238602F01ABCDFF8A40900780A2190FBF1F014214843060030
:2069E000B6B2DFF8C80B30F81600DFF8C41B21F82700B6B2DFF8B40B10EB46004088B90091
:206A000011F1D0410880B6B2DFF8A00B10EB46008088DFF8A01B21F82700B6B2DFF88C0B00
:206A200010EB4600C088DFF8381921F82700B6B2DFF8780B10EB46000089DFF87C1B21F852
:206A40002700B6B2DFF8640B10EB46004089DFF8181921F82700B6B2DFF8500B10EB460034
:206A60008089DFF8581B21F82700B6B2DFF83C0B10EB4600C089DFF8F81821F82700B6B2E4
:206A8000DFF8280B10EB4600008ADFF8341B21F82700B6B2DFF8140B10EB4600408ADFF87B
:206AA000EC1A21F82700B6B2DFF8000B10EB4600808ADFF8101B21F82700B6B2DFF8EC0A84
:206AC00010EB4600C08ADFF8CC1A21F82700B6B2DFF8D80A10EB4600008BDFF8EC1A21F84B
:206AE0002700B6B2DFF8C40A10EB4600408BDFF8AC1A21F82700B6B2DFF8B00A10EB46003F
:206B0000808BDFF8C81A21F82700B6B2DFF89C0A10EB4600C08BDFF88C1A21F82700B6B2DB
:206B2000DFF8880A10EB4600008CDFF8A41A21F82700B6B2DFF8740A10EB4600408CDFF8A9
:206B4000941A21F82700B6B2DFF8600A10EB4600808CDFF8841A21F82700B6B2DFF84C0A07
:206B600010EB4600C08CDFF8741A21F82700DFF8700A002120F82710DFF8E007002120F82B
:206B80002710DFF8600A002120F82710DFF8D407002120F82710DFF8500A002120F827104A
:206BA000DFF8C807002120F82710DFF8400A002120F82710DFF89404002120F82710DFF878
:206BC000300A002120F82710DFF8C409002120F82710DFF8200A002120F82710DFF8B809EE
:206BE000002120F82710DFF8100A002120F82710DFF8AC09002120F82710DFF8000A0021C6
:206C000020F82710DFF8A009002120F82710DFF8F009002120F82710DFF8E809002120F8F4
:206C20002710DFF8E409002120F82710DFF8DC09002120F827100A37DFF8380700780A21C3
:206C400090FBF1F201FB1200142148430600B6B2DFF8580930F81600DFF8541921F8270090
:206C6000B6B2DFF8480910EB46004088B90011F1D0410880B6B2DFF8340910EB4600808862
:206C8000DFF8301921F82700B6B2DFF8200910EB4600C088DFF8C81621F82700B6B2DFF86F
:206CA0000C0910EB46000089DFF80C1921F82700B6B2DFF8F80810EB46004089DFF8A816DB
:206CC00021F82700B6B2DFF8E40810EB46008089DFF8E81821F82700B6B2DFF8D00810EBD6
:206CE0004600C089DFF8881621F82700B6B2DFF8BC0810EB4600008ADFF8C41821F827008F
:206D0000B6B2DFF8A80810EB4600408ADFF87C1821F82700B6B2DFF8940810EB4600808AA8
:206D2000DFF8A01821F82700B6B2DFF8800810EB4600C08ADFF85C1821F82700B6B2DFF868
:206D40006C0810EB4600008BDFF87C1821F82700B6B2DFF8580810EB4600408BDFF83C1872
:206D600021F82700B6B2DFF8440810EB4600808BDFF8581821F82700B6B2DFF8300810EB03
:206D80004600C08BDFF81C1821F82700B6B2DFF81C0810EB4600008CDFF8341821F8270084
:206DA000B6B2DFF8080810EB4600408CDFF8241821F82700B6B2DFF8F40710EB4600808C9D
:206DC000DFF8141821F82700B6B2DFF8E00710EB4600C08CDFF8041821F82700DFF80008AB
:206DE000002120F82710DFF87405002120F82710DFF8F007002120F82710DFF868050021C0
:206E000020F82710DFF8E007002120F82710DFF85C05002120F82710DFF8D007002120F866
:206E200027108A48002120F82710DFF8C407002120F82710DFF85807002120F82710DFF84A
:206E4000B407002120F82710DFF84C07002120F82710DFF8A407002120F82710DFF840075D
:206E6000002120F82710DFF89407002120F82710DFF83407002120F82710DFF884070021BB
:206E800020F82710DFF87C07002120F82710DFF87807002120F82710DFF87007002120F88C
:206EA00027100A37DFF8E80D00784B2840F0D080DFF8C0048078C00779D5C8200600B6B225
:206EC000DFF8E80630F81600DFF8E41621F82700B6B2DFF8D80610EB46004088B90011F1BD
:206EE000D0410880B6B2DFF8C40610EB46008088DFF8C01621F82700B6B2DFF8B00610EBCA
:206F00004600C088DFF8581421F82700B6B2DFF89C0610EB46000089DFF89C1621F82700EC
:206F2000B6B2DFF8880610EB46004089DFF8381421F82700B6B2DFF8740610EB4600808914
:206F4000DFF8781621F82700B6B2DFF8600610EB4600C089DFF8181421F82700DFF88006BD
:206F6000002120F82710DFF8F403002120F82710DFF87006002120F82710DFF8E8030021C3
:206F800020F82710DFF86006002120F82710DFF8DC03002120F82710DFF85006002120F869
:206FA00027102A48002120F827103F1DC4E0DFF80006002120F82710DFF82406002120F831
:206FC0002710B80010F1D04000210180DFF88C03002120F82710DFF8DC05002120F8271011
:206FE000DFF80006002120F82710DD48002120F82710DC48002120F82710DFF8BC05002162
:2070000020F82710DFF8E005002120F82710D648002120F82710D548002120F82710DFF803
:207020009C05002120F82710DFF8C005002120F82710CF48002120F827100448002120F827
:2070400027103F1D78E000BFD4EE03080C100068C8200600B6B2DFF8540530F81600DFF89A
:20706000501521F82700B6B2DFF8400510EB46004088B90011F1D0410880B6B2DFF82C051A
:2070800010EB46008088DFF82C1521F82700B6B2DFF8180510EB4600C088B14921F8270030
:2070A000B6B2DFF8080510EB46000089DFF8081521F82700B6B2DFF8F40410EB4600408945
:2070C000A94921F82700B6B2DFF8E00410EB46008089DFF8E81421F82700B6B2DFF8CC04EF
:2070E00010EB4600C089A24921F82700DFF8F004002120F827109948002120F82710DFF878
:20710000E404002120F827109648002120F82710DFF8D404002120F827109448002120F895
:207120002710DFF8C804002120F82710DFF8640B002120F827103F1D8E4840780A2190FBAF
:20714000F1F0142148430600B6B2DFF8600430F81600DFF85C1421F82700B6B2DFF84C0491
:2071600010EB46004088B90011F1D0410880B6B2DFF8380410EB46008088DFF8381421F8B2
:207180002700B6B2DFF8240410EB4600C088744921F82700B6B2DFF8140410EB46000089BA
:2071A000DFF8141421F82700B6B2DFF8000410EB460040896C4921F82700B6B2DFF8EC0320
:2071C00010EB46008089DFF8F41321F82700B6B2DFF8D80310EB4600C089654921F82700B5
:2071E000B6B2DFF8C80310EB4600008ADFF8D01321F82700B6B2DFF8B40310EB4600408ABF
:20720000DFF8881321F82700B6B2DFF8A00310EB4600808ADFF8AC1321F82700B6B2DFF87A
:207220008C0310EB4600C08ADFF8681321F82700B6B2DFF8780310EB4600008BDFF88813AA
:2072400021F82700B6B2DFF8640310EB4600408BDFF8481321F82700B6B2DFF8500310EB3D
:207260004600808BDFF8641321F82700B6B2CF4810EB4600C08BCB4921F82700B6B2CB4855
:2072800010EB4600008CD24921F82700B6B2C74810EB4600408CCF4921F82700B6B2C34877
:2072A00010EB4600808CCC4921F82700B6B2BF4810EB4600C08CC94921F82700C8480021AD
:2072C00020F827102548002120F82710C548002120F827102348002120F82710C2480021FF
:2072E00020F827102148002120F82710BF48002120F82710DFF89C09002120F82710BC48FF
:20730000002120F82710A248002120F82710B948002120F82710A048002120F82710B648DC
:20732000002120F827109E48002120F82710B348002120F827109C48002120F82710B048D0
:20734000002120F82710AF48002120F82710AE48002120F82710AD480EE000BF00100068D6
:20736000040000680410006808000068081000680C000068C8B30120002120F827100A3774
:20738000DFF8140940780A2190FBF1F201FB1200142148430600B6B2844830F81600844995
:2073A00021F82700B6B2814810EB46004088B90011F1D0410880B6B27C4810EB460080888A
:2073C0007C4921F82700B6B2784810EB4600C088DFF8201E21F82700B6B2744810EB46003D
:2073E0000089754921F82700B6B2704810EB46004089DFF8041E21F82700B6B26B4810EB8D
:20740000460080896D4921F82700B6B2674810EB4600C089DFF8E41D21F82700B6B263485B
:2074200010EB4600008A664921F82700B6B25F4810EB4600408A554921F82700B6B25B488F
:2074400010EB4600808A5F4921F82700B6B2574810EB4600C08A4F4921F82700B6B253488C
:2074600010EB4600008B584921F82700B6B24F4810EB4600408B494921F82700B6B24B4887
:2074800010EB4600808B514921F82700B6B2474810EB4600C08B434921F82700B6B2434884
:2074A00010EB4600008C4A4921F82700B6B23F4810EB4600408C474921F82700B6B23B4875
:2074C00010EB4600808C444921F82700B6B2374810EB4600C08C414921F8270040480021AB
:2074E00020F82710DFF8180D002120F827103D48002120F82710DFF80C0D002120F827107C
:207500003948002120F82710DFF8FC0C002120F827103648002120F82710DFF878070021C6
:2075200020F827103248002120F827101848002120F827102F48002120F8271016480021DC
:2075400020F827102C48002120F827101448002120F827102948002120F8271012480021D0
:2075600020F827102648002120F827102548002120F827102448002120F827102348002199
:2075800020F827100A3701F03CBE00BF100000681010006814000068141000681800006829
:2075A000181000681C0000681C10006818EA030802000068060000680A0000680E00006856
:2075C00012000068160000681A0000681E000068220000682000006826000068240000687F
:2075E00002100068061000680A1000680E10006812100068161000681A1000681E1000684B
:2076000022100068201000682610006824100068DFF8840600780A2190FBF1F014214843CE
:207620000600DFF8D80E002120F82710B80010F1D04000210180DFF8DC0E002120F827107B
:20764000DFF8B00B002120F82710DFF8CC0E002120F82710DFF8A00B002120F82710DFF83E
:20766000D40E002120F82710DFF8900B002120F82710DFF8C40E002120F82710DFF88C0B4F
:20768000002120F82710DFF8880B002120F82710DFF8800B002120F82710DFF87C0B00214F
:2076A00020F82710DFF8740B002120F82710DFF8700B002120F82710DFF8680B002120F870
:2076C0002710DFF8640B002120F82710DFF85C0B002120F82710DFF8580B002120F8271065
:2076E000DFF8500B002120F82710B6B2DFF8480B30F81600DFF8441B21F82700B6B2DFF863
:20770000380B10EB46004088DFF8F41A21F82700B6B2DFF8240B10EB46008088DFF8201B2F
:2077200021F82700B6B2DFF8100B10EB4600C088DFF8D01A21F82700B6B2DFF8FC0A10EBE5
:2077400046000089DFF8FC1A21F82700B6B2DFF8E80A10EB46004089DFF8AC1A21F8270015
:20776000B6B2DFF8D40A10EB46008089DFF8D81A21F82700B6B2DFF8C00A10EB4600C08906
:20778000DFF8101521F82700B6B2DFF8AC0A10EB4600008ADFF8BC1E21F82700B6B2DFF8BD
:2077A000980A10EB4600408ADFF8AC1E21F82700B6B2DFF8840A10EB4600808ADFF8C81E66
:2077C00021F82700B6B2DFF8700A10EB4600C08ADFF8B81E21F82700B6B2DFF85C0A10EB98
:2077E0004600008BDFF8A81E21F82700B6B2DFF8480A10EB4600408BDFF8981E21F8270071
:20780000B6B2DFF8340A10EB4600808BDFF8B41E21F82700B6B2DFF8200A10EB4600C08BC1
:20782000DFF8A41E21F82700B6B2DFF80C0A10EB4600008CDFF8941E21F82700B6B2DFF845
:20784000F80910EB4600408CDFF8841E21F82700B6B2DFF8E40910EB4600808CDFF8741E7F
:2078600021F82700B6B2DFF8D00910EB4600C08CDFF8D81921F827000A37DFF81C0400786B
:207880000A2190FBF1F201FB1200142148430600DFF8680C002120F82710B80010F1D040F7
:2078A00000210180DFF86C0C002120F82710DFF84409002120F82710DFF85C0C002120F85B
:2078C0002710DFF83409002120F82710DFF8640C002120F82710DFF82409002120F82710C2
:2078E000DFF8540C002120F82710DFF82009002120F82710DFF81809002120F82710DFF832
:207900001409002120F82710DFF80C09002120F82710DFF80809002120F82710DFF8000946
:20792000002120F82710DFF8FC08002120F82710DFF8F408002120F82710DFF8F008002159
:2079400020F82710DFF8E808002120F82710DFF8E408002120F82710B6B2DFF8DC0830F823
:207960001600DFF8D81821F82700B6B2DFF8C80810EB46004088DFF8881821F82700B6B2B3
:20798000DFF8B40810EB46008088DFF8B41821F82700B6B2DFF8A00810EB4600C088DFF8E1
:2079A000641821F82700B6B2DFF88C0810EB46000089DFF8901821F82700B6B2DFF87808F0
:2079C00010EB46004089DFF8401821F82700B6B2DFF8640810EB46008089DFF86C1821F8C5
:2079E0002700B6B2DFF8500810EB4600C089A94921F82700B6B2DFF8400810EB4600008ABB
:207A0000DFF8501C21F82700B6B2DFF82C0810EB4600408ADFF8401C21F82700B6B2DFF8B3
:207A2000180810EB4600808ADFF85C1C21F82700B6B2DFF8040810EB4600C08ADFF84C1C37
:207A400021F82700B6B2DFF8F00710EB4600008BDFF83C1C21F82700B6B2DFF8DC0710EB58
:207A60004600408BDFF82C1C21F82700B6B2DFF8C80710EB4600808BDFF8481C21F82700C1
:207A8000B6B2DFF8B40710EB4600C08BDFF8381C21F82700B6B2DFF8A00710EB4600008C42
:207AA000DFF8281C21F82700B6B2DFF88C0710EB4600408CDFF8181C21F82700B6B2DFF802
:207AC000780710EB4600808CDFF8081C21F82700B6B2DFF8640710EB4600C08CDFF86C170E
:207AE00021F827000A376A4800784B2840F0D68069488078C00779D5C8200600DFF8FC095A
:207B0000002120F82710B80010F1D04000210180DFF8000A002120F82710DFF8D806002163
:207B200020F82710DFF8F009002120F82710DFF8C806002120F82710DFF8F809002120F890
:207B40002710DFF8B806002120F82710B6B2DFF8E80630F81600DFF8E41621F82700B6B205
:207B6000DFF8D40610EB46004088DFF8941621F82700B6B2DFF8C00610EB46008088DFF865
:207B8000C01621F82700B6B2DFF8AC0610EB4600C088DFF8701621F82700B6B2DFF89806DB
:207BA00010EB46000089DFF89C1621F82700B6B2DFF8840610EB46004089DFF84C1621F80D
:207BC0002700B6B2DFF8700610EB46008089DFF8781621F82700B6B2DFF85C0610EB4600F8
:207BE000C0892C4921F827003F1DD1E0DFF80C09002120F82710DFF84406002120F827108D
:207C0000B80010F1D04000210180DFF8F405002120F82710DFF8FC08002120F82710DFF897
:207C20002006002120F82710DFF8C805002120F82710DFF8D005002120F82710DFF8D808C7
:207C4000002120F82710DFF8FC05002120F82710DFF8A405002120F82710DFF8AC050021D3
:207C600020F82710DFF8CC08002120F82710DFF8D805002120F82710DFF88005002120F8E1
:207C800027100448002120F827103F1D80E000BF46B501200C100068C8B30120C82006004C
:207CA000DFF85808002120F82710B80010F1D04000210180DFF85C08002120F82710DFF830
:207CC0003405002120F82710DFF84C08002120F82710DFF82405002120F82710DFF85408BD
:207CE000002120F82710DFF81405002120F82710B6B2DFF8440530F81600DFF8401521F8A9
:207D00002700B6B2DFF8300510EB46004088DFF8F01421F82700B6B2DFF81C0510EB460003
:207D20008088DFF81C1521F82700B6B2DFF8080510EB4600C088DFF8CC1421F82700B6B2BF
:207D4000DFF8F40410EB46000089DFF8F81421F82700B6B2DFF8E00410EB46004089DFF863
:207D6000A81421F82700B6B2DFF8CC0410EB46008089DFF8D41421F82700B6B2DFF8B804B4
:207D800010EB4600C089DFF8041D21F827003F1DDFF8FC0C40780A2190FBF1F014214843D7
:207DA0000600DFF85807002120F82710B80010F1D04000210180DFF85C07002120F8271002
:207DC000DFF83004002120F82710DFF84C07002120F82710DFF82004002120F82710DFF84C
:207DE0005407002120F82710DFF81004002120F82710DFF84407002120F82710DFF80C04E4
:207E0000002120F82710DFF80804002120F82710DFF80004002120F82710DFF8FC0300215D
:207E200020F82710DFF8F403002120F82710DFF8F003002120F82710DFF8E803002120F880
:207E40002710DFF8E403002120F82710DFF8DC03002120F82710DFF8D803002120F8271075
:207E6000DFF8D003002120F82710B6B2DFF8C80330F81600DFF8C41321F82700B6B2DFF873
:207E8000B80310EB46004088DFF8741321F82700B6B2DFF8A40310EB46008088DFF8A013C7
:207EA00021F82700B6B2DFF8900310EB4600C088D44921F82700B6B2DFF87C0310EB4600CB
:207EC0000089DFF8801321F82700B6B2DA4810EB46004089CC4921F82700B6B2D64810EB05
:207EE00046008089D84921F82700B6B2D24810EB4600C089DFF8941B21F82700B6B2CE4882
:207F000010EB4600008ADFF84C1721F82700B6B2C94810EB4600408ADFF83C1721F827002E
:207F2000B6B2C54810EB4600808ADFF85C1721F82700B6B2C04810EB4600C08ADFF84C17C2
:207F400021F82700B6B2BC4810EB4600008BDFF8401721F82700B6B2B74810EB4600408BC8
:207F6000DFF8301721F82700B6B2B34810EB4600808BDFF8501721F82700B6B2AE4810EB1D
:207F80004600C08BDFF8401721F82700B6B2AA4810EB4600008CDFF8341721F82700B6B2F1
:207FA000A54810EB4600408CDFF8241721F82700B6B2A14810EB4600808CDFF8181721F8B8
:207FC0002700B6B29C4810EB4600C08C9F4921F827000A37DFF8B80A40780A2190FBF1F24E
:207FE00001FB1200142148430600DFF81005002120F82710B80010F1D04000210180DFF80F
:208000001405002120F827107A48002120F82710DFF80405002120F827107748002120F85D
:208020002710DFF81005002120F827107348002120F82710DFF80005002120F8271073487B
:20804000002120F827107248002120F827107148002120F827107048002120F827106F487E
:20806000002120F827106E48002120F827106D48002120F827106C48002120F827106B486E
:20808000002120F827106A48002120F827106948002120F82710B6B2674830F81600674928
:2080A00021F82700B6B2644810EB46004088544921F82700B6B2604810EB46008088604984
:2080C00021F82700B6B25C4810EB4600C0884D4921F82700B6B2584810EB46000089594981
:2080E00021F82700B6B2544810EB46004089464921F82700B6B2504810EB4600808952497E
:2081000021F82700B6B24C4810EB4600C089DFF87C1921F82700B6B2474810EB4600008A2B
:20812000DFF8301521F82700B6B2434810EB4600408ADFF8241521F82700B6B23E4810EBAC
:208140004600808ADFF8401521F82700B6B23A4810EB4600C08ADFF8341521F82700B6B226
:20816000354810EB4600008BDFF8241521F82700B6B2314810EB4600408BDFF8181521F85C
:208180002700B6B22C4810EB4600808BDFF8341521F82700B6B2284810EB4600C08BDFF8F5
:2081A000281521F82700B6B2234810EB4600008CDFF8181521F82700B6B21F4810EB46004E
:2081C000408CDFF80C1521F82700B6B21A4810EB4600808CDFF8FC1421F82700B6B2164897
:2081E00010EB4600C08C194921F827000A3701F008B800BF04000068080000680C0000684F
:208200000010006804100068081000681000006816000068140000681A0000681800006876
:208220001E0000681C0000682200006820000068260000682400006818EA03080210006881
:20824000061000680A1000680E10006824100068DFF83C0800780A2190FBF1F01421484312
:208260000600B6B2DFF82C0830F81600A34921F82700B6B2DFF81C0830F81600DFF8881EFD
:2082800021F82700B6B2DFF80C0810EB46004088B90011F1D0410880B6B2DFF8F80710EBB5
:2082A00046004088DFF8801E21F82700B6B2DFF8E40710EB46008088964921F82700B6B201
:2082C000DFF8D00710EB46008088DFF87C1E21F82700B6B2DFF8BC0710EB4600C088DFF894
:2082E000B81721F82700B6B2DFF8A80710EB4600C088DFF86C1E21F82700B6B2DFF894077D
:2083000010EB46000089844921F82700B6B2DFF8840710EB46000089DFF86C1E21F8270051
:20832000B6B2DFF8700710EB46004089DFF85C1E21F82700B6B2DFF85C0710EB4600408940
:20834000DFF8601E21F82700B6B2DFF8480710EB46008089774921F82700B6B2DFF8340736
:2083600010EB46008089DFF8541E21F82700B6B2DFF8200710EB4600C089DFF8441E21F8E8
:208380002700B6B2DFF80C0710EB4600C089DFF8FC1621F82700B6B2DFF8F80610EB460033
:2083A000008A654921F82700B6B2DFF8E80610EB4600008AA74921F82700B6B2DFF8D40604
:2083C00010EB4600408ADFF8D41621F82700B6B2DFF8C00610EB4600408A9F4921F8270059
:2083E000B6B2DFF8B00610EB4600808ADFF8081E21F82700B6B2DFF89C0610EB4600808AD4
:20840000A14921F82700B6B2DFF8880610EB4600C08ADFF88C1621F82700B6B2DFF8740668
:2084200010EB4600C08A994921F82700B6B2DFF8640610EB4600008BDFF82C1E21F82700B9
:20844000B6B2DFF8500610EB4600008B904921F82700B6B2DFF83C0610EB4600408BDFF83E
:208460000C1E21F82700B6B2DFF8280610EB4600408B884921F82700B6B2DFF8180610EBB0
:208480004600808BDFF8E81D21F82700B6B2DFF8040610EB4600808B8A4921F82700B6B25F
:2084A000DFF8F00510EB4600C08BDFF8C81D21F82700B6B2DFF8DC0510EB4600C08B8249F1
:2084C00021F82700B6B2DFF8CC0510EB4600008CDFF8A41D21F82700B6B2DFF8B80510EBB0
:2084E0004600008C794921F82700B6B2DFF8A40510EB4600408CDFF8841D01E002000068F0
:2085000021F82700B6B2DFF88C0510EB4600408C6F4903E0060000680A00006821F8270083
:20852000B6B2DFF8700510EB4600808CDFF8501D04E000BF0E0000681200006821F8270023
:20854000B6B2DFF8500510EB4600808C614921F82700B6B2DFF83C0510EB4600C08CDFF86C
:20856000241D21F82700B6B2DFF8280510EB4600C08CDFF8141D21F827000A37DFF810050C
:2085800000780A2190FBF1F201FB1200142148430600B6B2DFF8FC0430F81600DFF8EC1C9A
:2085A00021F82700B6B2DFF8EC0430F81600DFF8581B21F82700B6B2DFF8D80410EB460028
:2085C0004088B90011F1D0410880B6B2DFF8C40410EB46004088DFF8501B21F82700B6B285
:2085E000DFF8B00410EB46008088DFF8A41C21F82700B6B2DFF89C0410EB46008088DFF8D1
:20860000481B21F82700B6B2DFF8880410EB4600C088DFF8841421F82700B6B2DFF87404FD
:2086200010EB4600C088DFF8381B21F82700B6B2DFF8600410EB46000089DFF8581C21F876
:208640002700B6B2DFF84C0410EB46000089DFF8381B03E0121000681010006821F827003B
:20866000B6B2DFF8300410EB46004089DFF81C1B21F82700B6B2DFF81C0410EB46004089C6
:20868000DFF8201B08E000BF16100068141000681A1000681810006821F82700B6B2DFF866
:2086A000F40310EB46008089DFF8EC1B21F82700B6B2DFF8E00310EB46008089DFF8FC1A02
:2086C0000AE000BF1E1000681C10006822100068201000682610006821F82700B6B2DFF878
:2086E000B40310EB4600C089DFF8D41A21F82700B6B2DFF8A00310EB4600C089DFF88C1352
:2087000021F82700B6B2DFF88C0310EB4600008ADFF8881B21F82700B6B2DE4810EB4600F7
:20872000008ADFF87C1B21F82700B6B2D94810EB4600408AD94921F82700B6B2D54810EB8B
:208740004600408ADFF85C1B21F82700B6B2D14810EB4600808ADFF8A01A21F82700B6B276
:20876000CC4810EB4600808ADFF83C1B21F82700B6B2C84810EB4600C08AC94921F82700D7
:20878000B6B2C44810EB4600C08ADFF8201B21F82700B6B2BF4810EB4600008BDFF8C81A94
:2087A00021F82700B6B2BB4810EB4600008BDFF8001B21F82700B6B2B64810EB4600408B9E
:2087C000DFF8A81A21F82700B6B2B24810EB4600408BDFF8E01A21F82700B6B2AD4810EBE9
:2087E0004600808BDFF8881A21F82700B6B2A94810EB4600808BDFF8C01A21F82700B6B271
:20880000A44810EB4600C08BDFF8681A21F82700B6B2A04810EB4600C08BDFF8A01A21F8C1
:208820002700B6B29B4810EB4600008CDFF8481A21F82700B6B2974810EB4600008CDFF895
:20884000801A21F82700B6B2924810EB4600408CDFF8281A21F82700B6B28E4810EB460017
:20886000408CDFF8601A21F82700B6B2894810EB4600808CDFF8081A21F82700B6B28548A7
:2088800010EB4600808CDFF8401A21F82700B6B2804810EB4600C08CDFF8E81921F8270045
:2088A000B6B27C4810EB4600C08CDFF8DC1921F827000A37DFF8140A00784B2840F0F28030
:2088C00073488078C00740F19080C8200600B6B2704830F81600DFF8B41921F82700B6B245
:2088E0006C4830F81600DFF8201821F82700B6B2684810EB46004088B90011F1D0410880C2
:20890000B6B2644810EB46004088DFF81C1821F82700B6B25F4810EB46008088DFF8701937
:2089200021F82700B6B25B4810EB46008088DFF8181821F82700B6B2564810EB4600C088CD
:20894000554921F82700B6B2524810EB4600C088DFF80C1821F82700B6B24E4810EB460034
:208960000089DFF8301921F82700B6B2494810EB46000089DFF8101821F82700B6B2454817
:2089800010EB46004089DFF8041821F82700B6B2404810EB46004089DFF8081821F8270069
:2089A000B6B23C4810EB46008089DFF8EC1821F82700B6B2374810EB46008089DFF8FC174B
:2089C00021F82700B6B2334810EB4600C089DFF8F01721F82700B6B22E4810EB4600C08964
:2089E0002A4921F827003F1DFDE0DFF8A008002120F82710DFF81007002120F82710B80086
:208A000010F1D04000210180DFF81C07002120F82710DFF87C08002120F82710DFF8280768
:208A2000002120F827101C48002120F82710DFF83007002120F82710DFF85808002120F804
:208A40002710DFF84407002120F82710DFF83C07002120F82710DFF84C07002120F8271029
:208A6000DFF83408002120F82710DFF85007002120F82710DFF84807002120F827100348F4
:208A8000002120F827103F1DADE000BF0C100068C8B3012018EA03080400006810000068AD
:208AA00014000068C8200600B6B2DFF8240830F81600DFF8D81721F82700B6B2DFF8100846
:208AC00030F81600DFF8401621F82700B6B2DFF8000810EB46004088B90011F1D041088047
:208AE000B6B2DFF8EC0710EB46004088DFF8381621F82700B6B2DFF8D80710EB460080886F
:208B0000DFF88C1721F82700B6B2DFF8C40710EB46008088DFF8301621F82700B6B2DFF8AC
:208B2000B00710EB4600C088DFF8A81721F82700B6B2DFF89C0710EB4600C088DFF82016A7
:208B400021F82700B6B2DFF8880710EB46000089DFF8401721F82700B6B2DFF8740710EB1A
:208B600046000089DFF8201621F82700B6B2DFF8600710EB46004089DFF8101621F82700EC
:208B8000B6B2DFF84C0710EB46004089DFF8141621F82700B6B2DFF8380710EB4600808930
:208BA000DFF8F41621F82700B6B2DFF8240710EB46008089DFF8041621F82700B6B2DFF870
:208BC000100710EB4600C089DFF8F41521F82700B6B2DFF8FC0610EB4600C089DFF8F81624
:208BE00021F827003F1DDFF8F40640780A2190FBF1F0142148430600B6B2DFF8D40630F8B2
:208C00001600DFF8881621F82700B6B2DFF8C00630F81600DFF8F01421F82700B6B2DFF8EC
:208C2000B00610EB46004088B90011F1D0410880B6B2DFF89C0610EB46004088DFF8E81464
:208C400021F82700B6B2DFF8880610EB46008088DFF83C1621F82700B6B2DFF8740610EBA1
:208C600046008088DFF8E01421F82700B6B2DFF8600610EB4600C088DFF8581621F82700E8
:208C8000B6B2DFF84C0610EB4600C088DFF8D01421F82700B6B2DFF8380610EB4600008978
:208CA000DFF8F01521F82700B6B2DFF8240610EB46000089DFF8D01421F82700B6B2DFF82B
:208CC000100610EB46004089DFF8C01421F82700B6B2DFF8FC0510EB46004089DFF8C41490
:208CE00021F82700B6B2DFF8E80510EB46008089DFF8A41521F82700B6B2DFF8D40510EBDB
:208D000046008089DFF8B41421F82700B6B2DFF8C00510EB4600C089DFF8A41421F82700C8
:208D2000B6B2DFF8AC0510EB4600C089DFF8A81521F82700B6B2DFF8980510EB4600008A3E
:208D4000DFF8581521F82700B6B2DFF8840510EB4600008ADFF8481521F82700B6B2DFF849
:208D6000700510EB4600408ADFF8741521F82700B6B2DFF85C0510EB4600408ADFF8241518
:208D800021F82700B6B2DFF8480510EB4600808ADFF8641421F82700B6B2DFF8340510EBBA
:208DA0004600808ADFF8001521F82700B6B2DFF8200510EB4600C08ADFF8281521F82700F4
:208DC000B6B2DFF80C0510EB4600C08ADFF8DC1421F82700B6B2DFF8F80410EB4600008BAA
:208DE000DFF8841421F82700B6B2DFF8E40410EB4600008BDFF8B81421F82700B6B2DFF8AF
:208E0000D00410EB4600408BDFF8601421F82700B6B2DFF8BC0410EB4600408BDFF894145D
:208E200021F82700B6B2DFF8A80410EB4600808BDFF83C1421F82700B6B2DFF8940410EB82
:208E40004600808BDFF8701421F82700B6B2DFF8800410EB4600C08BDFF8181421F8270094
:208E6000B6B2DFF86C0410EB4600C08BDFF84C1421F82700B6B2DFF8580410EB4600008CD8
:208E8000DFF8F41321F82700B6B2DFF8440410EB4600008CDFF8281421F82700B6B2DFF8CE
:208EA000300410EB4600408CDFF8D01321F82700B6B2DFF81C0410EB4600408CDFF804141C
:208EC00021F82700B6B2DFF8080410EB4600808CDFF8AC1321F82700B6B2DFF8F40310EBB3
:208EE0004600808CDFF8E01321F82700B6B2DFF8E00310EB4600C08CDFF8881321F82700B5
:208F0000B6B2DFF8CC0310EB4600C08CDFF8781321F827000A37DFF8C40340780A2190FBC7
:208F2000F1F201FB1200142148430600B6B2DFF8A00330F81600DFF8541321F82700B6B274
:208F4000DFF88C0330F816006F4921F82700B6B2DFF87C0310EB46004088B90011F1D041E2
:208F60000880B6B2DFF8680310EB460040886E4921F82700B6B2DFF8580310EB46008088DC
:208F8000C34921F82700B6B2DFF8440310EB460080886D4921F82700B6B2CD4810EB460002
:208FA000C088CC4921F82700B6B2C94810EB4600C0886B4921F82700B6B2C54810EB460068
:208FC0000089B44921F82700B6B2C14810EB460000896D4921F82700B6B2BD4810EB4600EC
:208FE00040896A4921F82700B6B2B94810EB460040896C4921F82700B6B2B54810EB4600A7
:209000008089A54921F82700B6B2B14810EB460080896A4921F82700B6B2AD4810EB4600DD
:20902000C089674921F82700B6B2A94810EB4600C089A94921F82700B6B2A54810EB46004C
:20904000008A964921F82700B6B2A14810EB4600008A934921F82700B6B29D4810EB4600A1
:20906000408A9F4921F82700B6B2994810EB4600408A8C4921F82700B6B2954810EB46000F
:20908000808A5D4921F82700B6B2914810EB4600808A854921F82700B6B28D4810EB4600C8
:2090A000C08A904921F82700B6B2894810EB4600C08A7E4921F82700B6B2854810EB46000C
:2090C000008B694921F82700B6B2814810EB4600008B774921F82700B6B27D4810EB4600A8
:2090E000408B624921F82700B6B2794810EB4600408B704921F82700B6B2754810EB460026
:20910000808B5B4902E000BF0210006821F82700B6B26F4810EB4600808B674921F82700EA
:20912000B6B26B4802E000BF0010006810EB4600C08B504921F82700B6B2654810EB460040
:20914000C08B5E4902E000BF0610006821F82700B6B25F4810EB4600008C474902E000BFB1
:209160000410006821F82700B6B2594810EB4600008C534921F82700B6B2554810EB46003B
:20918000408C3E4904E000BF0A1000680800006821F82700B6B24E4810EB4600408C49490A
:2091A00002E000BF0810006821F82700B6B2484810EB4600808C324904E000BF0E10006865
:2091C0000C00006821F82700B6B2414810EB4600808C3D4921F82700B6B23D4810EB4600A9
:2091E000C08C284921F82700B6B2394810EB4600C08C254902E000BF1600006821F827002F
:209200000A3700BF00BF00BF00BF00BF00BF00BF00BF00BF00BF00BF00BF00BF00BF00BFDC
:2092200000BF00BF00BF00BF00BF00BF00BF00BF00BF00BF00BF00BF00BF00BF00BF00BF3E
:2092400000BF00BF00BF00BF00BF00BF00BF00BF00BF00BF00BF24480421018001AA0021FB
:20926000224815F040FFF7BD1A000068180000681E0000681C00006822000068200000686E
:2092800026000068240000682410006802000068060000680A0000680E00006812000068DE
:2092A000121000681010006816100068141000681A100068181000681E1000681C10006836
:2092C00022100068201000682610006846B5012018EA0308040000680C100068C8B3012009
:2092E0001000006814000068180C024014B00120FEB504000D0001A8009002AB00224FF420
:20930000FA71DFF8280E15F02DFEDFF8240E04210180E4B22000213805D0401E012841F258
:20932000D28003F0F8BC00200700EDB2242D08D0C1F0C780262D00F07885C0F0BD8201F02D
:20934000C0B8DFF8F00D00780A2190FBF1F080B2C0000600B6B2DFF8E00D30F81600B90097
:2093600011F1D0410880B6B2DFF8CC0D10EB46004088DFF8C81D21F82700B6B2DFF8B80D31
:2093800010EB46008088DFF8B81D21F82700B6B2DFF8A40D10EB4600C088DFF8A81D21F86A
:2093A0002700B6B2DFF8900D10EB46000089DFF8981D21F82700B6B2DFF87C0D10EB46000B
:2093C0004089DFF8881D21F82700B6B2DFF8680D10EB46008089DFF8781D21F82700B6B2F6
:2093E000DFF8540D10EB4600C089DFF8681D21F82700DFF8640D002120F82710DFF85C0D17
:20940000002120F82710DFF8580D002120F82710DFF8500D002120F82710DFF84C0D00213B
:2094200020F82710DFF8440D002120F82710DFF8400D002120F82710DFF8380D002120F85C
:2094400027100837DFF8EC0C00780A2190FBF1F201FB120080B2C0000600B6B2DFF8D80C8D
:2094600030F81600B90011F1D0410880B6B2DFF8C80C10EB46004088DFF8C01C21F827004B
:20948000B6B2DFF8B40C10EB46008088DFF8B01C21F82700B6B2DFF8A00C10EB4600C0882D
:2094A000DFF8A01C21F82700B6B2DFF88C0C10EB46000089DFF8901C21F82700B6B2DFF836
:2094C000780C10EB46004089DFF8801C21F82700B6B2DFF8640C10EB46008089DFF8701CEF
:2094E00021F82700B6B2DFF8500C10EB4600C089DFF8601C21F82700DFF85C0C002120F8FC
:209500002710DFF8580C002120F82710DFF8500C002120F82710DFF84C0C002120F8271027
:20952000DFF8440C002120F82710DFF8400C002120F82710DFF8380C002120F82710DFF89F
:20954000340C002120F827100837DFF82C0C00784B286DD1DFF8DC0B8078C0073ED55020E4
:209560000600B6B2DFF8D00B30F81600B90011F1D0410880B6B2DFF8C00B10EB4600408826
:20958000DFF8B81B21F82700B6B2DFF8AC0B10EB46008088DFF8A81B21F82700B6B2DFF889
:2095A000980B10EB4600C088DFF8981B21F82700DFF8A40B002120F82710DFF8A00B00211C
:2095C00020F82710DFF8980B002120F82710DFF8940B002120F827103F1D67E0B80010F110
:2095E000D04000210180DFF8700B002120F82710DFF8480B002120F82710DFF8600B0021FA
:2096000020F82710DFF8380B002120F82710DFF8500B002120F82710DFF8280B002120F88C
:209620002710DFF8400B002120F827103F1D3DE050200600B6B2DFF8000B30F81600B90031
:2096400011F1D0410880B6B2DFF8EC0A10EB46004088DFF8E81A21F82700B6B2DFF8D80AF7
:2096600010EB46008088DFF8D81A21F82700B6B2DFF8C40A10EB4600C088DFF8C81A21F830
:209680002700DFF8D40A002120F82710DFF8CC0A002120F82710DFF8C80A002120F8271048
:2096A000DFF8C00A002120F827103F1DDFF8840A40780A2190FBF1F080B2C0000600B6B229
:2096C000DFF8740A30F81600B90011F1D0410880B6B2DFF8640A10EB46004088DFF85C1AA0
:2096E00021F82700B6B2DFF8500A10EB46008088DFF84C1A21F82700B6B2DFF83C0A10EB4B
:209700004600C088DFF83C1A21F82700B6B2DFF8280A10EB46000089DFF82C1A21F82700B6
:20972000B6B2DFF8140A10EB46004089DFF81C1A21F82700B6B2DFF8000A10EB46008089E2
:20974000DFF80C1A21F82700B6B2DFF8EC0910EB4600C089DFF8FC1921F82700DFF8F8090A
:20976000002120F82710DFF8F409002120F82710DFF8EC09002120F82710DFF8E809002110
:2097800020F82710DFF8E009002120F82710DFF8DC09002120F82710DFF8D409002120F831
:2097A0002710DFF8D009002120F827100837DFF8840940780A2190FBF1F201FB120080B21E
:2097C000C0000600B6B2DFF8700930F81600B90011F1D0410880B6B2DFF85C0910EB460094
:2097E0004088DFF8581921F82700B6B2DFF8480910EB46008088DFF8481921F82700B6B260
