:020000040800F2
:2000000010240020D10F0008A70F0008A90F0008AB0F0008AD0F0008AF0F000800000000DA
:20002000000000000000000000000000B10F0008B30F000800000000B50F0008B70F000894
:20004000ED0F0008F10F0008F50F0008F90F0008FD0F00080110000805100008091000080D
:200060000D1000081110000815100008191000081D100008211000082510000829100008E8
:200080002D1000083110000835100008391000083D100008411000084510000849100008C8
:2000A0004D1000085110000855100008591000085D100008611000086510000869100008A8
:2000C0006D1000087110000875100008791000087D10000881100008851000088910000888
:2000E0008D1000089110000895100008991000089D100008A1100008A5100008A910000868
:20010000AD100008B1100008B5100008B9100008BD100008C1100008C5100008C910000847
:20012000CD100008D1100008D5100008D9100008DD100008E1100008E5100008E910000827
:20014000ED100008F1100008F5100008F9100008FD10000801110008051100080911000804
:200160000D1100081111000815110008191100081D110008211100082511000829110008DF
:200180002D11000800B583B001211A2000F06CF90121012000F077F98020009002208DF806
:2001A000040003208DF8050000208DF8060000208DF8070000A9A94800F078F90C220721E6
:2001C000A64800F0D5F94FF6F370009000A9A44800F06CF90C220021A14800F0C9F90C2239
:2001E00001219F4800F0C4F90C2204219C4800F0BFF90C2205219A4800F0BAF90C2206213C
:20020000974800F0B5F90C220721954800F0B0F90C220821924800F0ABF90C2209219048A0
:2002200000F0A6F90C220A218D4800F0A1F90C220B218B4800F09CF90C220C21884800F0AA
:2002400097F90C220D21864800F092F90C220E21834800F08DF90C220F21814800F088F933
:200260004FF6FC70009000A97E4800F01FF90C2202217C4800F07CF90C220321794800F049
:2002800077F90C220421774800F072F90C220521744800F06DF90C220621724800F068F9BB
:2002A0000C2207216F4800F063F90C2208216D4800F05EF90C2209216A4800F059F90C2218
:2002C0000A21684800F054F90C220B21654800F04FF90C220C21634800F04AF90C220D2132
:2002E000604800F045F90C220E215E4800F040F90C220F215B4800F03BF900F005F800F0FA
:200300003BF800F073F807BD00B597B0022000900020019002200290012003900020049010
:20032000002005900020069000200790022008900420099010200A9000200B9000200C90E3
:2003400000200D9000200E9000200F904FF48050109000201190002012900020139000A8C2
:20036000149000A8159007A800F040F90121002000F0ACF917B000BD00B597B00A200090A3
:200380000120019007200290012003900020049000200590002006900220079002200890AC
:2003A0000820099010200A9000200B9000200C904FF400700D9000200E9000200F904FF42B
:2003C000805010904FF400501190002012900020139000A8149000A8159007A800F006F9BD
:2003E0000121022000F072F917B000BD00B597B00320009000200190052002900020039010
:2004000000200490002005900020069004200790022008900420099010200A9000200B9006
:2004200000200C9000200D9000200E9000200F904FF4805010900020119000201290002070
:20044000139000A8149000A8159007A800F0CEF80121042000F03AF917B000BD00040240C8
:20046000000C024000100240C9B2002905D00D4A126802430B4B1A6004E00A4A1268824306
:20048000084B1A607047C9B2002905D0064A12680243054B1A6004E0034A12688243024BC9
:2004A0001A6070473038024038380240F0B400220023002400252A00102A4AD20125954002
:2004C0002B000D681D402C009C4240D1056803261700FFB27F00BE40B543056005680E79D8
:2004E0001700FFB27F00BE40354305600D79012D02D00D79022D1AD1856803261700FFB2D6
:200500007F00BE40B543856085684E791700FFB27F00BE4035438560456801269640B54389
:20052000456045688E799640B6B235434560C56803261700FFB27F00BE40B543C560C56822
:20054000CE791700FFB27F00BE403543C560521CB2E7F0BC704702000020136989B20B42E2
:2005600002D00123180001E000231800C0B27047F0B400230024D2B211F00705EDB2AD0060
:2005800012FA05F52B0089B2CD1010EB850589B2CE1010EB8606366A0F2711F0070C5FFAAA
:2005A0008CFC5FEA8C0C17FA0CF7BE432E6289B2CD1010EB85052D6A1D432C0089B2CD1055
:2005C00010EB85052C62F0BC704750F8041B61B150F8042BD30744BFA9F101039A18002365
:2005E00042F8043B091FFAD1EFE77047416882681143C268114302691143426911438269F4
:200600001143C2691143026A1143426A1143826A1143C26A1143026B114302689200B2F127
:20062000C0421160816808290BD101688900B1F1C041096851F0400102689200B2F1C04228
:200640001160416B0968426B526851EA0211426B926851EA0221426BD26851EA0241426B40
:20066000126951EA0251426B526951EA0261426B9269114302689200B2F1C0425160C16AF2
:20068000B1F5804F1AD1816B0968826B526851EA0211826B926851EA0221826B126951EAC0
:2006A0000251826B526951EA0261826B926911430268DFF84C3043F8221006E00168DFF815
:2006C00040207FF0704342F821307047C9B200290AD08200B2F1C042126852F0010283006F
:2006E000B3F1C0431A600AE08200B2F1C0421268DFF810301A408300B3F1C0431A60704782
:20070000040100A0FEFF0F00DFF8E4010068002809D5DFF8E001DFF8E0110160DFF8D40171
:20072000DFF8D81101607047F8B504000D0000260827EDB2002D02D10020060010E0EDB27A
:20074000012D03D14FF48070060009E0EDB2022D03D14FF40070060002E04FF4407006003F
:2007600000F0DAF80700FFB2082F3AD1DFF88001006830F44070DFF878110860DFF8700119
:2007800000683043DFF868110860DFF86401006830F0F800DFF858110860DFF854010068CE
:2007A00054F002010843DFF848110860DFF84001006850F48030DFF83811086000F0ACF87F
:2007C0000700DFF82C01006830F00200DFF820110860DFF81C01006830F0F800DFF81011A8
:2007E00008603800C0B2F2BD70B504000D00082600F092F80600F6B2082E1BD13C4800689E
:2008000030F440703A4908603948006850F40070374908603648006850F001003449086088
:20082000256000F079F8060031480068400840002F4908603000C0B270BD31480068C0070C
:2008400005D53048304901602E4830490160704770B504000D00082600F05EF80600F6B20D
:20086000082E0DD1EDB2002D05D029480088A0432749088004E026480088204324490880BD
:2008800070BD10B508241E48007850F002001C49087000F041F804002000C0B210BD1C484D
:2008A000008880B270471B4908607047082019490968C90302D50121080017E015490968B6
:2008C000C90602D50521080010E01249096811F0EF0F02D00621080008E00E490968890748
:2008E00002D50721080001E008210800C0B27047103C0240043C024023016745AB89EFCDE6
:20090000143C0240083C02403B2A19087F6E5D4C163C02400C3C024080B508208DF80000A3
:20092000FFF7C4FF8DF800009DF80000012804D1FFF7BCFF8DF80000F6E79DF8000002BD7F
:2009400080B5FFF7E1FEF320FFF7ADFF01BD70B5040008250026644800F06BF805002E006C
:20096000592E09D202213000FFF7DEFE082801D0012002E00836F3E7002070BDF8B50400D6
:200980000D001600002700200700B6B2B74219D220685649884215D255F827102068FFF7C0
:2009A00023FF08280CD12068006855F82710884201D0022007E02068001D20607F1CE4E765
:2009C000012000E00020F2BD10B50824464800F030F80400FFF763FFE108084140F6FF717C
:2009E000E2081141884201D1012000E0002010BD00B583B008200190022000903A4800F06C
:200A000018F8019040F6FF700121019AD2089140401A401C0090FFF710FF00210098FFF72E
:200A200017FFFFF72EFF082801D0022000E001200EBD01002C48814204D2B1F1006F01D39B
:200A4000002050E02A48814204D22748814201D3082048E02748814204D22548814201D3D9
:200A6000102040E02448814204D22248814201D3182038E02148814204D21F48814201D3D0
:200A8000202030E01E48814204D21C48814201D3282028E01B48814204D21948814201D3C8
:200AA000302020E01848814204D21648814201D3382018E01548814204D21348814201D3C0
:200AC000402010E01248814204D21048814201D3482008E00F48814204D20D48814201D3B8
:200AE000502000E05820704700400008FCFF0F080080000800C000080000010800000208BA
:200B000000000408000006080000080800000A0800000C0800000E0800B583B0012108203D
:200B2000FFF7A2FC0820009001208DF8040000208DF8060003208DF8050000208DF80700BB
:200B400000A9DFF87C01FFF7B1FC01210820FFF78BFC4020009000208DF8040000208DF8F0
:200B6000060003208DF8050001208DF8070000A9DFF84C01FFF79AFC07BD80B5FFF7CCFF02
:200B8000DFF8400108210180DFF838014021018000F013F801BD01B481B0002000900198B9
:200BA00042F6E061484300900098002803D00098401E0090F8E702B0704780B5DFF808012B
:200BC000082101805FF0C840F0210180DFF8F400082101804021DFF8E800FFF7BCFC002817
:200BE00003D10120FFF7D7FFF4E701BD38B504000D0040213248FFF7AEFC0028F9D03348B6
:200C0000AA2101803248552101803048A021018014F1C840058031BD30B42B4C08252580B0
:200C2000002423009BB289B28B4207D210F1C84424881480921C801C9B1CF3E7214C08257D
:200C4000258030BC7047204908220A801F49AA220A801F4955220A801C4980220A801B4913
:200C6000AA220A801A4955220A8010F1C84130220A80144908220A80704770B504000D00D6
:200C8000160040210E48FFF766FC002803D10A20FFF781FFF5E7FFF790FF0B480821018035
:200CA000AD1E280080B2002806D031882000FFF79DFFB61CA41CF3E702480821018070BD19
:200CC000000C0240180C02401A0C0240AA0A00645405006401B481B000200090019842F6BC
:200CE000E061484300900098002803D00098401E0090F8E702B070473EB5FFF765FE0028C3
:200D000001D1FFF775FE3D480068040042F21170844223D33A48844220D24FF48060B4FB2A
:200D2000F0F101FB1041002918D13648FFF70FFE0020050033480090A5420FD2324A4FF43B
:200D4000806115F58030FFF767FF4FF480722E4900A8FFF713FE15F58065EDE72B480021EA
:200D600001805FF40010FFF76EFF0020ADF804000020ADF806000020ADF8080001AA0621F9
:200D80005FF40010FFF779FF4FF480415FF0006000F044F837BD00B583B06420FFF79AFFB4
:200DA000FFF7CEFDFFF7EEF9FFF7E7FE00AA06215FF40010FFF730FF1448BDF800100180BF
:200DC0000E48BDF804104180BDF802000B4908800E480088022801D1FFF78EFF0C480D4999
:200DE000096801600C480A49096801600548006880F30888084800688047FEE70804002060
:200E000040420F0000400008000000200C040020040400200440000800040020024A0A407B
:200E20000243024B1A60704780FFFF1F08ED00E080B53F48006850F001003D4908603D48A5
:200E4000002101603A4800683B490840384908603A483B4901603648006830F480203449E3
:200E6000086038480021016000F005F836485FF00061016001BD82B000200190002000903B
:200E80002B48006850F48030294908602848006810F4003000900198401C019000980028C7
:200EA00003D10198B0F5A06FF0D121480068800302D50120009001E0002000900098012822
:200EC00032D11C481B49096801601A48006850F40040184908601748006850F4A050154905
:200EE00008601648194901601148006850F080700F4908600E4800688001FBD5144840F21B
:200F0000037101600B48006880088000094908600848006850F00200064908600548006819
:200F200010F00C000828F9D102B07047000000000038024008380240FFFFF6FE04380240D6
:200F4000103000240C38024008ED00E0193C4005003C024010B5074979441831064C7C448D
:200F6000163404E00A68081D511888470146A142F8D110BD08000000140000004FF6FFFF55
:200F80001004000000000020000000000120C046002801D0FFF7DEFF0020FFF7FCFE00F02A
:200FA00000F800F009B87047FEE7FEE7FEE7FEE770477047704770470746384600F002F8AC
:200FC000FBE7000001491820ABBEFBE7260002000148804701480047310E0008E10F00085B
:200FE000C046C046C046C046FFF7D0FFFFF7FEBFFFF7FEBFFFF7FEBFFFF7FEBFFFF7FEBF95
:20100000FFF7FEBFFFF7FEBFFFF7FEBFFFF7FEBFFFF7FEBFFFF7FEBFFFF7FEBFFFF7FEBF38
:20102000FFF7FEBFFFF7FEBFFFF7FEBFFFF7FEBFFFF7FEBFFFF7FEBFFFF7FEBFFFF7FEBF18
:20104000FFF7FEBFFFF7FEBFFFF7FEBFFFF7FEBFFFF7FEBFFFF7FEBFFFF7FEBFFFF7FEBFF8
:20106000FFF7FEBFFFF7FEBFFFF7FEBFFFF7FEBFFFF7FEBFFFF7FEBFFFF7FEBFFFF7FEBFD8
:20108000FFF7FEBFFFF7FEBFFFF7FEBFFFF7FEBFFFF7FEBFFFF7FEBFFFF7FEBFFFF7FEBFB8
:2010A000FFF7FEBFFFF7FEBFFFF7FEBFFFF7FEBFFFF7FEBFFFF7FEBFFFF7FEBFFFF7FEBF98
:2010C000FFF7FEBFFFF7FEBFFFF7FEBFFFF7FEBFFFF7FEBFFFF7FEBFFFF7FEBFFFF7FEBF78
:2010E000FFF7FEBFFFF7FEBFFFF7FEBFFFF7FEBFFFF7FEBFFFF7FEBFFFF7FEBFFFF7FEBF58
:20110000FFF7FEBFFFF7FEBFFFF7FEBFFFF7FEBFFFF7FEBFFFF7FEBFFFF7FEBFFFF7FEBF37
:10112000FFF7FEBFFFF7FEBFFFF7FEBFFFF7FEBFF3
:20400000E0D2012035700308297003082B700308317003082D7003082F7003083370030827
:20402000337003083370030833700308337003083370030833700308A3270308CD1D0208A3
:20404000352C02083F2C0208492C0208532C02085D2C0208672C0208712C02087B2C0208F0
:20406000852C02088F2C0208992C0208A32C0208AD2C0208B72C0208C12C0208CB2C020850
:20408000D52C0208DF2C0208E92C0208F32C0208FD2C0208072D0208112D02081B2D0208AD
:2040A000252D02082F2D0208392D0208432D02084D2D0208572D0208612D02086B2D020808
:2040C000752D02087F2D0208892D0208932D02089D2D0208A72D0208B12D0208BB2D020868
:2040E000C52D0208CF2D0208D92D0208E32D0208ED2D0208F72D0208012E02080B2E0208C6
:20410000152E02081F2E0208292E0208332E02083D2E0208472E0208512E02085B2E02081F
:20412000652E02086F2E0208792E0208832E02088D2E0208972E0208A12E0208AB2E02087F
:20414000B52E0208BF2E0208C92E0208D32E0208DD2E0208E72E0208F12E0208FB2E0208DF
:20416000052F02080F2F0208192F0208232F02082D2F0208372F0208412F02084B2F020837
:20418000552F020800B583B00121042018F012FA0820009001208DF8040000208DF8060042
:2041A00003208DF8050000208DF8070000A9DFF8400C18F07FFA07BD80B5FFF7E3FFDFF8B1
:2041C000340C0821018001BD10B584B001A8009002AB00224FF4FA71DFF8080A18F046FB56
:2041E000DFF8B4070421018000200400A4B2B4F5847F19DAA4B2A00010F1D04000210180C5
:20420000A4B2DFF89807002120F82410A4B2DFF89007002120F82410A4B2DFF88807002157
:2042200020F82410641CE1E700BF00BF00BF00BF00BF00BF00BF00BF00BF00BF00BF00BFF6
:2042400000BF00BF00BF00BF00BF00BF00BF00BF00BF00BF00BF00BF00BF00BF00BF00BF6E
:2042600000BF00BF00BF00BF00BF00BF00BF00BF00BF00BF00BF00BF00BF00BFDFF8680984
:204280000421018001AA0021DFF8580918F0AFFB18F00CFE01A8009002AB00224FF4FA71FA
:2042A000DFF8400918F0E2FADFF8EC060421018000200400A4B2B4F5847F19DAA4B2A0007C
:2042C00010F1D04000210180A4B2DFF8D006002120F82410A4B2DFF8C806002120F8241053
:2042E000A4B2DFF8C006002120F82410641CE1E700BF00BF00BF00BF00BF00BF00BF00BF1E
:2043000000BF00BF00BF00BF00BF00BF00BF00BF00BF00BF00BF00BF00BF00BF00BF00BFAD
:2043200000BF00BF00BF00BF00BF00BF00BF00BF00BF00BF00BF00BF00BF00BF00BF00BF8D
:2043400000BF00BFDFF8A0080421018001AA0021DFF8900818F04BFB18F0A8FD1FBD0000A8
:2043600070B584B004000D0001A8009002AB00224FF4FA71DFF8C40A18F078FA01A80090C5
:2043800002AB00224FF4FA71DFF8580818F06EFADFF8040604210180DFF8500800784A2859
:2043A00001D022200400E4B22000213803D0401E01283FD980E000200600B6B2B6F5847FC9
:2043C00037DAB6B2ADB2A819DFF8241831F810000002B6B2B10011F1D0410880B6B2ADB27B
:2043E000A819DFF8101831F810000002B6B2DFF8AC1521F82600B6B2ADB2A819DFF8F0171D
:2044000031F8100080B2000AB6B2DFF8941521F82600B6B2ADB2A819DFF8D81731F8100079
:2044200080B2000AB6B2DFF87C1521F82600761CC3E741E000200600B6B2B6F5847F3BDA83
:20444000B6B2ADB2A819DFF8A81731F810004FF6F0710840B6B2B10011F1D0410880B6B2FB
:20446000ADB2A819DFF88C1731F810004FF6F0710840B6B2DFF8241521F82600B6B2ADB2FD
:20448000A819DFF8741731F810000005000DB6B2DFF80C1521F82600B6B2ADB2A819DFF8B0
:2044A0005C1731F810000005000DB6B2DFF8F41421F82600761CBFE700BF00BF00BF00BF84
:2044C00000BF00BF00BF00BF00BF00BF00BF00BF00BF00BF00BF00BF00BF00BF00BF00BFEC
:2044E00000BF00BF00BF00BF00BF00BF00BF00BF00BF00BF00BF00BF00BF00BF00BF00BFCC
:2045000000BF00BF00BF00BF00BF00BFDFF8D8060421018001AA0021DFF8C80618F067FAEC
:2045200001AA0021DFF8140918F061FA7FBD0000FEB504000D0001A8009002AB00224FF40D
:20454000FA71DFF8F80818F091F901A8009002AB00224FF4FA71DFF88C0618F087F9DFF809
:20456000380404210180DFF8840600784A2801D022200400E4B22000213803D0401E01288E
:2045800051D9B4E0F6200700DFF86C0800210180DFF8680800210180DFF864080021018085
:2045A000DFF860080021018000200600B6B2BFB2BE4237D2B6B2ADB2A819DFF8341631F840
:2045C00010000002B6B2DFF8401821F82600B6B2ADB2A819DFF81C1631F810000002B6B2BF
:2045E000DFF8281821F82600B6B2ADB2A819DFF8001631F8100080B2000AB6B2DFF8101814
:2046000021F82600B6B2ADB2A819DFF8E81531F8100080B2000AB6B2DFF8F81721F82600FD
:20462000761CC3E763E0EE200700DFF8EC0700210180DFF8E80700210180DFF8E40700212F
:204640000180DFF8E00700210180DFF8DC0700210180DFF8D80700210180DFF8D4070021F2
:204660000180DFF8D0070021018000200600B6B2BFB2BE423BD2B6B2ADB2A819DFF8701579
:2046800031F810004FF6F0710840B6B2DFF8A81721F82600B6B2ADB2A819DFF8581531F8C1
:2046A00010004FF6F0710840B6B2DFF8941721F82600B6B2ADB2A819DFF83C1531F81000EA
:2046C0000005000DB6B2DFF87C1721F82600B6B2ADB2A819DFF8241531F810000005000DD4
:2046E000B6B2DFF8641721F82600761CBFE700BF00BF00BF00BF00BF00BF00BF00BF00BFD2
:2047000000BF00BF00BF00BF00BF00BF00BF00BF00BF00BF00BF00BF00BF00BF00BF00BFA9
:2047200000BF00BF00BF00BF00BF00BF00BF00BF00BF00BF00BF00BF00BF00BF00BF00BF89
:2047400000BFDFF8A4040421018001AA0021DFF8940418F04CF901AA0021DFF8E00618F05C
:2047600046F9F7BDFEB504000D0001A8009002AB00224FF4FA71DFF8C40618F077F801A80B
:20478000009002AB00224FF4FA71DFF8580418F06DF8814804210180DFF8500400784A28E8
:2047A00001D022200400E4B22000213803D0401E012851D9B4E0D2200700DFF83C06002188
:2047C0000180DFF8380600210180DFF8340600210180DFF830060021018000200600B6B2B1
:2047E000BFB2BE4237D2B6B2ADB2A819DFF8001431F810000002B6B2DFF8FC1521F8260002
:20480000B6B2ADB2A819DFF8EC1331F810000002B6B2DFF8E81521F82600B6B2ADB2A819FC
:20482000DFF8CC1331F8100080B2000AB6B2DFF81C1621F82600B6B2ADB2A819DFF8B41377
:2048400031F8100080B2000AB6B2DFF8041621F82600761CC3E763E0C2200700DFF8B8054F
:2048600000210180DFF8B40500210180DFF8B00500210180DFF8AC0500210180DFF8A80588
:2048800000210180DFF8A40500210180DFF8A00500210180DFF89C050021018000200600F6
:2048A000B6B2BFB2BE423BD2B6B2ADB2A819DFF8401331F810004FF6F0710840B6B2DFF8FA
:2048C000781521F82600B6B2ADB2A819DFF8241331F810004FF6F0710840B6B2DFF860159B
:2048E00021F82600B6B2ADB2A819DFF80C1331F810000005000DB6B2DFF8481521F82600D5
:20490000B6B2ADB2A819DFF8F41231F810000005000DB6B2DFF8301521F82600761CBFE7EC
:2049200000BF00BF00BF00BF00BF00BF00BF00BF00BF00BF00BF00BF00BF00BF00BF00BF87
:2049400000BF00BF00BF00BF00BF00BF00BF00BF00BF00BF00BF00BF00BF00BF00BF00BF67
:2049600000BF00BF00BF00BF00BF00BF00BF00BF00BF00BFDFF870020421018001AA002106
:20498000DFF8600218F033F801AA0021DFF8AC0418F02DF8F7BD00001A0C02400010006897
:2049A0000200006802100068FEB504000D0001A8009002AB00224FF4FA71DFF8800417F037
:2049C00055FF01A8009002AB00224FF4FA71854817F04CFFDFF87C0404210180834800786E
:2049E0004A2801D022200400E4B22000213803D0401E01285DD9BCE0E4200700DFF85804B5
:204A000000210180DFF8540400210180DFF8500400210180DFF84C0400210180DFF848046A
:204A200000210180DFF8440400210180DFF8400400210180DFF83C04002101800020060077
:204A4000B6B2BFB2BE4233D2B6B2ADB2A819684931F810000002B6B2DFF8FC1321F8260077
:204A6000B6B2ADB2A819634931F810000002B6B2DFF8E81321F82600B6B2ADB2A8195C4921
:204A800031F8100080B2000AB6B2DFF8DC1321F82600B6B2ADB2A819564931F8100080B2A2
:204AA000000AB6B2DFF8C41321F82600761CC7E75FE0DC200700DFF8C00300210180DFF802
:204AC000BC0300210180DFF8B80300210180DFF8B40300210180DFF8B00300210180DFF80E
:204AE000AC0300210180DFF8A80300210180DFF8A4030021018000200600B6B2BFB2BE4222
:204B000037D2B6B2ADB2A819394931F810004FF6F0710840B6B2DFF8801321F82600B6B2E2
:204B2000ADB2A819334931F810004FF6F0710840B6B2DFF8681321F82600B6B2ADB2A81931
:204B40002D4931F810000005000DB6B2DFF8501321F82600B6B2ADB2A819284931F8100081
:204B60000005000DB6B2DFF83C1321F82600761CC3E700BF00BF00BF00BF00BF00BF00BFE1
:204B800000BF00BF00BF00BF00BF00BF00BF00BF00BF00BF00BF00BF00BF00BF00BF00BF25
:204BA00000BF00BF00BF00BF00BF00BF00BF00BF00BF00BF00BF00BF00BF00BF00BF00BF05
:204BC00000BF00BF00BF08480421018001AA0021044817F00CFF01AA0021984817F007FFBF
:204BE000F7BD0000B4AD0120180C0240C0B201205C4400205C6400205C8400205CA40020C6
:204C0000FEB507000C0001A8009002AB00224FF4FA718A4817F02AFE01A8009002AB00220F
:204C20004FF4FA71DFF8800217F020FE894804210180FFB23800213803D0401E012855D907
:204C40009EE0E2200600844800210180834800210180834800210180824800210180824850
:204C60000021018081480021018081480021018080480021018000200500ADB2B6B2B5426F
:204C800033D2ADB2A4B26019884931F810004FF6F0710840ADB2864921F82500ADB2A4B2C8
:204CA0006019844931F810004FF6F0710840ADB2814921F82500ADB2A4B260197F4931F801
:204CC00010000005000DADB27D4921F82500ADB2A4B260197B4931F810000005000DADB2B3
:204CE000794921F825006D1CC7E749E0DA20060061480021018061480021018060480021F5
:204D000001806048002101805F48002101805F48002101805E48002101805E4800210180A6
:204D200000200500ADB2B6B2B54229D2ADB2A4B260195E4931F81000ADB2574921F825004A
:204D4000ADB2A4B260195B4931F81000ADB2534921F82500ADB2A4B26019584931F8100007
:204D6000ADB24F4921F82500ADB2A4B26019554931F81000ADB24B4921F825006D1CD1E787
:204D800000BF00BF00BF00BF00BF00BF00BF00BF00BF00BF00BF00BF00BF00BF00BF00BF23
:204DA00000BF00BF00BF00BF00BF00BF00BF00BF00BF00BF00BF00BF00BF00BF00BF00BF03
:204DC00000BF00BF00BF00BF00BF00BF00BF00BF00BF00BF3D480421018001AA00213248EC
:204DE00017F005FE01AA0021144817F000FEF7BD00080240180802404000006840100068BC
:204E0000440000684410006848000068481000684A0000684A1000686000006860100068A6
:204E2000640000686410006862000068621000686600006866100068680000687CAE01205F
:204E4000681000686A0000686A10006842000068421000681A0C02409000006890100068F2
:204E6000940000689410006892000068921000689600006896100068B0000068B0100068DA
:204E8000B4000068B4100068B2000068B2100068B6000068B6100068B8000068B8100068EA
:204EA000BA000068BA100068B4AD01205C440020980000685C640020981000685C8400206C
:204EC0009A0000685CA400209A100068180C0240FEB504000D0001A8009002AB00224FF429
:204EE000FA71DFF8380B17F0C1FCDFF8340B04210180DFF8300B00784A2801D0222004009A
:204F0000E4B22000213805D0401E012842F2068304F03BBFE4200700EDB2242D08D0C2F0F6
:204F2000DC82262D01F06483C0F0A28502F0D5BADFF8F40A00780A2190FBF1F080B2C000BA
:204F40000600B6B2DFF8E40A30F816000002B90011F1D0410880B6B2DFF8D00A10EB460030
:204F600040880002DFF8C81A21F82700B6B2DFF8BC0A10EB460080880002DFF8B81A21F85C
:204F80002700B6B2DFF8A40A10EB4600C0880002DFF8A41A21F82700B6B2DFF8900A10EBC9
:204FA000460000890002DFF8C01E21F82700B6B2DFF8780A10EB460040890002DFF8D01E99
:204FC00021F82700B6B2DFF8640A10EB460080890002DFF8C01E21F82700B6B2DFF84C0A0E
:204FE00010EB4600C0890002DFF8BC1E21F82700B6B2DFF8380A30F8160080B2000ADFF862
:205000003C1A21F82700B6B2DFF8200A10EB4600408880B2000ADFF8281A21F82700B6B28B
:20502000DFF8080A10EB4600808880B2000ADFF8141A21F82700B6B2DFF8F00910EB460044
:20504000C08880B2000ADFF8001A21F82700B6B2DFF8D80910EB4600008980B2000ADFF89E
:205060004C1E21F82700B6B2DFF8C00910EB4600408980B2000ADFF8381E21F82700B6B263
:20508000DFF8A80910EB4600808980B2000ADFF8241E21F82700B6B2DFF8900910EB460090
:2050A000C08980B2000ADFF8101E21F82700DFF89C09002120F82710DFF89409002120F88D
:2050C0002710DFF89009002120F82710DFF88809002120F82710DFF8E40D002120F82710A9
:2050E000DFF8DC0D002120F82710DFF8D80D002120F82710DFF8D00D002120F82710DFF859
:205100005C09002120F82710DFF85409002120F82710DFF85009002120F82710DFF848094E
:20512000002120F82710DFF8A40E002120F82710DFF89C0E002120F82710DFF8980E002177
:2051400020F82710DFF82409002120F827100837DFF8D40800780A2190FBF1F201FB12007B
:2051600080B2C0000600B6B2DFF8C00830F816000002B90011F1D0410880B6B2DFF8AC08A9
:2051800010EB460040880002DFF8A41821F82700B6B2DFF8980810EB460080880002DFF830
:2051A000941821F82700B6B2DFF8800810EB4600C0880002DFF8801821F82700B6B2DFF8C3
:2051C0006C0810EB460000890002DFF89C1C21F82700B6B2DFF8540810EB46004089000219
:2051E000DFF8AC1C21F82700B6B2DFF8400810EB460080890002DFF89C1C21F82700B6B2C6
:20520000DFF8280810EB4600C0890002DFF8981C21F82700B6B2DFF8140830F8160080B265
:20522000000ADFF8181821F82700B6B2DFF8FC0710EB4600408880B2000ADFF8041821F88A
:205240002700B6B2DFF8E40710EB4600808880B2000ADFF8F01721F82700B6B2DFF8CC0748
:2052600010EB4600C08880B2000ADFF8DC1721F82700B6B2DFF8B40710EB4600008980B269
:20528000000ADFF8281C21F82700B6B2DFF89C0710EB4600408980B2000ADFF8141C21F861
:2052A0002700B6B2DFF8840710EB4600808980B2000ADFF8001C21F82700B6B2DFF86C0792
:2052C00010EB4600C08980B2000ADFF8EC1B21F82700DFF87807002120F82710DFF87007D6
:2052E000002120F82710DFF86C07002120F82710DFF86407002120F82710DFF8C00B00210F
:2053000020F82710DFF8B80B002120F82710DFF8B40B002120F82710DFF8AC0B002120F867
:205320002710DFF83807002120F82710DFF83007002120F82710DFF82C07002120F82710B8
:20534000DFF82407002120F82710DFF8800C002120F82710DFF8780C002120F82710DFF866
:20536000740C002120F82710DFF80007002120F827100837DFF8AC0600784B2840F0DE80AE
:20538000DFF8A4068078C00740F1868050200600B6B2DFF8980630F816000002B90011F148
:2053A000D0410880B6B2DFF8840610EB460040880002DFF87C1621F82700B6B2DFF86C0626
:2053C00010EB460080880002DFF8681621F82700B6B2DFF8580610EB4600C0880002DFF8EE
:2053E000581621F82700B6B2DFF8400630F8160080B2000ADFF8441621F82700B6B2DFF850
:205400002C0610EB4600408880B2000ADFF8301621F82700B6B2DFF8140610EB4600808816
:2054200080B2000ADFF81C1621F82700B6B2DFF8FC0510EB4600C08880B2000ADFF80816ED
:2054400021F82700DFF80406002120F82710DFF80006002120F82710DFF8F805002120F861
:205460002710DFF8F405002120F82710DFF8EC05002120F82710DFF8E805002120F8271049
:20548000DFF8E005002120F82710DFF8DC05002120F827103F1DD6E0B80010F1D0400021BC
:2054A0000180DFF8A805002120F82710DFF88005002120F82710DFF89805002120F82710C7
:2054C000DFF87005002120F82710DFF88805002120F82710DFF86005002120F82710DFF8B9
:2054E0007805002120F82710DFF85005002120F82710DFF86805002120F82710DFF8400553
:20550000002120F82710DFF85805002120F82710DFF83005002120F82710DFF848050021B6
:2055200020F82710DFF82005002120F82710DFF83805002120F827103F1D84E050200600F6
:20554000B6B2DFF8E80430F816000002B90011F1D0410880B6B2DFF8D40410EB460040886C
:205560000002DFF8CC1421F82700B6B2DFF8BC0410EB460080880002DFF8B81421F8270005
:20558000B6B2DFF8A80410EB4600C0880002DFF8A81421F82700B6B2DFF8900430F81600B1
:2055A00080B2000ADFF8941421F82700B6B2DFF87C0410EB4600408880B2000ADFF8801481
:2055C00021F82700B6B2DFF8640410EB4600808880B2000ADFF86C1421F82700B6B2DFF889
:2055E0004C0410EB4600C08880B2000ADFF8581421F82700DFF85404002120F82710DFF89D
:205600005004002120F82710DFF84804002120F82710DFF84404002120F82710DFF83C048D
:20562000002120F82710DFF83804002120F82710DFF83004002120F82710DFF82C040021D4
:2056400020F827103F1DDFF8E00340780A2190FBF1F080B2C0000600B6B2DFF8D00330F864
:2056600016000002B90011F1D0410880B6B2DFF8BC0310EB460040880002DFF8B41321F8FE
:205680002700B6B2DFF8A40310EB460080880002DFF8A01321F82700B6B2DFF8900310EB1B
:2056A0004600C0880002DFF8901321F82700B6B2DFF8780310EB460000890002DFF8A81784
:2056C00021F82700B6B2D94810EB460040890002DFF8BC1721F82700B6B2D44810EB460046
:2056E00080890002DFF8AC1721F82700B6B2CF4810EB4600C0890002DFF8AC1721F82700E0
:20570000B6B2CA4830F8160080B2000ACB4921F82700B6B2C54810EB4600408880B2000A87
:20572000C74921F82700B6B2C04810EB4600808880B2000AC34921F82700B6B2BB4810EB72
:205740004600C08880B2000ABF4921F82700B6B2B64810EB4600008980B2000ADFF84C1791
:2057600021F82700B6B2B14810EB4600408980B2000ADFF83C1721F82700B6B2AB4810EB82
:205780004600808980B2000ADFF8281721F82700B6B2A64810EB4600C08980B2000ADFF835
:2057A000181721F82700A948002120F82710A848002120F82710A748002120F82710A6486C
:2057C000002120F82710DFF8F406002120F82710DFF8EC06002120F82710DFF8E8060021F9
:2057E00020F82710DFF8E006002120F827109B48002120F827109A48002120F827109948A7
:20580000002120F827109848002120F82710DFF8BC07002120F82710DFF8B407002120F8F3
:205820002710DFF8B007002120F827108F48002120F8271008377C4840780A2190FBF1F298
:2058400001FB120080B2C0000600B6B2774830F816000002B90011F1D0410880B6B2734864
:2058600010EB460040880002714921F82700B6B26E4810EB4600808800026E4921F82700C3
:20588000B6B26A4810EB4600C08800026A4921F82700B6B2654810EB460000890002DFF8B8
:2058A000C81521F82700B6B2604810EB460040890002DFF8DC1521F82700B6B25B4810EBA1
:2058C000460080890002DFF8CC1521F82700B6B2564810EB4600C0890002DFF8CC1521F81C
:2058E0002700B6B2514830F8160080B2000A534921F82700B6B24D4810EB4600408880B2F2
:20590000000A4F4921F82700B6B2484810EB4600808880B2000A4B4921F82700B6B2434861
:2059200010EB4600C08880B2000A474921F82700B6B23E4810EB4600008980B2000ADFF807
:205940006C1521F82700B6B2384810EB4600408980B2000ADFF8581521F82700B6B23348F1
:2059600010EB4600808980B2000ADFF8481521F82700B6B22D4810EB4600C08980B2000A8A
:20598000DFF8341521F827003048002120F827102F48002120F827102E48002120F82710F2
:2059A0002D48002120F82710DFF81005002120F82710DFF80C05002120F82710DFF804056E
:2059C000002120F82710DFF80005002120F827102248002120F827102148002120F8271058
:2059E0002048002120F827101F48002120F82710DFF8D805002120F82710DFF8D405002103
:205A000020F82710DFF8CC05002120F827101748002120F82710083701F05FBDB4AD012082
:205A20001A0C0240C0B2012088B101207462030804000068080000680C0000680200006876
:205A4000060000680A0000680E0000680010006804100068081000680C100068021000687E
:205A6000061000680A1000680E1000681E100068DFF8540B00780A2190FBF1F080B2C000D3
:205A80000600B80010F1D04000210180DFF83C0B002120F82710DFF8380B002120F827107D
:205AA000DFF8300B002120F82710DFF8BC03002120F82710DFF8D803002120F82710DFF865
:205AC000D403002120F82710DFF8DC03002120F82710DFF8040B002120F82710DFF8B40E6A
:205AE000002120F82710DFF8B00E002120F82710DFF8A80E002120F82710DFF8B003002189
:205B000020F82710EA48002120F82710E948002120F82710E848002120F82710B6B2DFF814
:205B2000AC0E30F816000002DFF8BC1E21F82700B6B2DFF8980E10EB460040880002DFF8B3
:205B4000AC1E21F82700B6B2DFF8800E10EB460080880002DFF8B01E21F82700B6B2DFF8FF
:205B60006C0E10EB4600C0880002DFF8A01E21F82700B6B2DFF8540E10EB460000890002DE
:205B8000CE4921F82700B6B2DFF8400E10EB460040890002CA4921F82700B6B2DFF82C0E49
:205BA00010EB460080890002C64921F82700B6B2DFF8180E10EB4600C0890002C24921F835
:205BC0002700B6B2DFF8040E30F8160080B2000ADFF8081A21F82700B6B2DFF8F00D10EB63
:205BE0004600408880B2000ADFF8F41921F82700B6B2DFF8D80D10EB4600808880B2000A8E
:205C0000DFF8E01921F82700B6B2DFF8C00D10EB4600C08880B2000ADFF8CC1921F82700A7
:205C2000B6B2DFF8A80D10EB4600008980B2000AE64921F82700B6B2DFF8900D10EB4600DE
:205C4000408980B2000AE24921F82700B6B2DFF87C0D10EB4600808980B2000ADD4921F847
:205C60002700B6B2DFF8640D10EB4600C08980B2000ADFF8781921F827000837DFF8480978
:205C800000780A2190FBF1F201FB120080B2C0000600B80010F1D04000210180DFF82C0976
:205CA000002120F82710DFF82809002120F82710DFF82009002120F827106B48002120F8A0
:205CC00027107348002120F827107248002120F827107548002120F82710DFF8FC0800210F
:205CE00020F82710DFF8AC0C002120F82710DFF8A80C002120F82710DFF8A00C002120F89F
:205D000027106A48002120F827106948002120F827106848002120F827106748002120F801
:205D20002710B6B2DFF8A40C30F816000002DFF8B81C21F82700B6B2DFF8900C10EB4600F6
:205D400040880002DFF8A41C21F82700B6B2DFF87C0C10EB460080880002DFF8AC1C21F8D8
:205D60002700B6B2DFF8640C10EB4600C0880002DFF8981C21F82700B6B2DFF8500C10EB61
:205D80004600008900024D4921F82700B6B2DFF83C0C10EB460040890002494921F82700F7
:205DA000B6B2DFF8280C10EB460080890002454921F82700B6B2DFF8140C10EB4600C0896D
:205DC0000002414921F82700B6B2DFF8000C30F8160080B2000ADFF8041821F82700B6B297
:205DE000DFF8E80B10EB4600408880B2000ADFF8F01721F82700B6B2DFF8D00B10EB46001B
:205E0000808880B2000ADFF8DC1721F82700B6B2DFF8B80B10EB4600C08880B2000ADFF896
:205E2000C81721F82700B6B2DFF8A00B10EB4600008980B2000A654921F82700B6B2DFF826
:205E40008C0B10EB4600408980B2000A604921F82700B6B2DFF8740B10EB4600808980B242
:205E6000000A5C4902E000BF1000006821F82700B6B2DFF8580B10EB4600C08980B2000AB2
:205E8000DFF8681721F827000837DFF8FC0C03E0140000681800006800784B2840F0F980DB
:205EA000DFF8240712E000BF1C00006812000068160000681A0000681E0000681010006823
:205EC00014100068181000681C1000688078C00740F18D8050200600B80010F1D0400021B5
:205EE0000180DFF8E806002120F82710DFF8E006002120F82710DFF8DC06002120F8271096
:205F0000DFF8D406002120F82710DFF8880A002120F82710DFF8800A002120F82710DFF8DF
:205F20007C0A002120F82710B6B2DFF8A00A30F816000002DFF8B01A21F82700B6B2DFF822
:205F40008C0A10EB460040880002DFF8A01A21F82700B6B2DFF8740A10EB460080880002C7
:205F6000DFF8A41A21F82700B6B2DFF8600A10EB4600C0880002DFF8941A21F82700B6B2EB
:205F8000DFF8480A30F8160080B2000ADFF84C1621F82700B6B2DFF8340A10EB460040885F
:205FA00080B2000ADFF8381621F82700B6B2DFF81C0A10EB4600808880B2000ADFF8241645
:205FC00021F82700B6B2DFF8040A05E012100068161000681A10006810EB4600C08880B2EA
:205FE000000ADFF8041621F827003F1DD6E0B80010F1D04000210180DFF8EC09002120F8E4
:206000002710DFF8C805002120F82710DFF8DC09002120F82710DFF8B805002120F8271005
:20602000DFF8E409002120F82710DFF8A805002120F82710DFF8D409002120F82710DFF83D
:206040009805002120F82710DFF89005002120F82710DFF84009002120F82710DFF880056B
:20606000002120F82710DFF83009002120F82710DFF87005002120F82710DFF82009002153
:2060800020F82710DFF86005002120F827103F1D84E050200600B80010F1D0400021018064
:2060A000DFF82805002120F82710DFF82405002120F82710DFF81C05002120F82710DFF8BD
:2060C0001805002120F82710DFF8C808002120F82710DFF8C408002120F82710DFF8BC086E
:2060E000002120F82710B6B2DFF8E00830F816000002DFF8F41821F82700B6B2DFF8CC0893
:2061000010EB460040880002DFF8E01821F82700B6B2DFF8B80810EB460080880002DFF844
:20612000E81821F82700B6B2DFF8A00810EB4600C0880002DFF8D41821F82700B6B2DFF86B
:206140008C0830F8160080B2000ADFF8901421F82700B6B2DFF8740810EB4600408880B280
:20616000000ADFF87C1421F82700B6B2DFF85C0810EB4600808880B2000ADFF8681421F8DA
:206180002700B6B2DFF8440810EB4600C08880B2000ADFF8541421F827003F1DDFF82804AA
:2061A00040780A2190FBF1F080B2C0000600B80010F1D04000210180DFF81004002120F809
:2061C0002710DFF80C04002120F82710DFF80404002120F82710DFF8DC0B002120F82710B4
:2061E000DFF8D40B002120F82710DFF8D00B002120F82710DFF8C80B002120F82710DFF866
:20620000D803002120F82710DFF88807002120F82710DFF88407002120F82710DFF87C0731
:20622000002120F82710DFF89C0B002120F82710DFF8940B002120F82710DFF8900B002187
:2062400020F82710DFF8880B002120F82710B6B2DFF8780730F816000002DFF88C1721F884
:206260002700B6B2DFF8640710EB460040880002DFF8781721F82700B6B2DFF8500710EB0B
:20628000460080880002DFF8801721F82700B6B2DFF8380710EB4600C0880002DFF86C179D
:2062A00021F82700B6B2DFF8240710EB460000890002DFF8201B21F82700B6B2DFF80C07C4
:2062C00010EB460040890002DFF80C1B21F82700B6B2DFF8F80610EB460080890002DFF814
:2062E000FC1A21F82700B6B2DFF8E00610EB4600C0890002DFF8E81A21F82700B6B2DFF83F
:20630000CC0630F8160080B2000AB44921F82700B6B2DFF8B80610EB4600408880B2000AB2
:20632000AF4921F82700B6B2DFF8A00610EB4600808880B2000AAB4921F82700B6B2DFF848
:206340008C0610EB4600C08880B2000AA64921F82700B6B2DFF8740610EB4600008980B202
:20636000000ADFF8801A21F82700B6B2DFF85C0610EB4600408980B2000ADFF86C1A21F805
:206380002700B6B2DFF8440610EB4600808980B2000ADFF8581A21F82700B6B2DFF82C06CD
:2063A00010EB4600C08980B2000A904921F827000837854840780A2190FBF1F201FB120093
:2063C00080B2C0000600B80010F1D040002101807E48002120F827107D48002120F82710EF
:2063E0007C48002120F82710DFF8C809002120F82710DFF8C409002120F82710DFF8BC09A1
:20640000002120F82710DFF8B809002120F827107148002120F82710DFF87805002120F84E
:206420002710DFF87405002120F82710DFF86C05002120F82710DFF88C09002120F82710D1
:20644000DFF88409002120F82710DFF88009002120F82710DFF87809002120F82710B6B268
:20646000DFF8680530F816000002DFF87C1521F82700B6B2DFF8540510EB4600408800024D
:20648000DFF8681521F82700B6B2DFF8400510EB460080880002DFF8701521F82700B6B295
:2064A000DFF8280510EB4600C0880002DFF85C1521F82700B6B2DFF8140510EB46000089A3
:2064C0000002DFF8101921F82700B6B2DFF8FC0410EB460040890002DFF8FC1821F8270004
:2064E000B6B2DFF8E80410EB460080890002DFF8EC1821F82700B6B2DFF8D00410EB4600B6
:20650000C0890002DFF8D81821F82700B6B2DFF8BC0430F8160080B2000A304921F82700F7
:20652000B6B2DFF8A80410EB4600408880B2000A2B4921F82700B6B2DFF8900410EB460063
:20654000808880B2000A274921F82700B6B2DFF87C0410EB4600C08880B2000A224921F83F
:206560002700B6B2DFF8640410EB4600008980B2000ADFF8701821F82700B6B2DFF84C0419
:2065800010EB4600408980B2000ADFF85C1821F82700B6B2DFF8340410EB4600808980B237
:2065A000000ADFF8481821F82700B6B2DFF81C0410EB4600C08980B2000A0C4921F82700A0
:2065C000083700F08ABF00BF88B1012004000068080000680C0000680200006802100068F6
:2065E000061000680A1000680E1000681E100068DFF8FC0D00780A2190FBF1F080B2C0009E
:206600000600B6B2DFF8C40330F816000002B90011F1D0410880B6B2DFF8B00330F81600AA
:206620000002DFF8C41321F82700B6B2DFF89C0310EB460040880002DFF8841E21F82700C8
:20664000B6B2DFF8880310EB460040880002DFF89C1321F82700B6B2DC4810EB46008088CA
:206660000002DFF8601E21F82700B6B2D74810EB460080880002DFF8901321F82700B6B28F
:20668000D24810EB4600C0880002DFF8541E21F82700B6B2CD4810EB4600C0880002DB49A0
:2066A00021F82700B6B2C94810EB460000890002DFF8001721F82700B6B2C44810EB460072
:2066C00000890002DFF80C1721F82700B6B2BF4810EB460040890002DFF8DC1621F8270071
:2066E000B6B2BA4810EB460040890002DFF8E81621F82700B6B2B54810EB4600808900025E
:20670000DFF8B81621F82700B6B2B04810EB460080890002DFF8C41621F82700B6B2AB489C
:2067200010EB4600C0890002DFF8941621F82700B6B2A64810EB4600C0890002DFF8A0169D
:2067400021F82700B6B2A14830F8160080B2000ADFF8901D21F82700B6B29C4830F81600E0
:2067600080B2000ADFF8801D21F82700B6B2974810EB4600408880B2000A864921F827008E
:20678000B6B2924810EB4600408880B2000ADFF85C1D21F82700B6B28C4810EB460080885D
:2067A00080B2000A7C4921F82700B6B2874810EB4600808880B2000ADFF8341D21F8270074
:2067C000B6B2824810EB4600C08880B2000A734921F82700B6B27D4810EB4600C08880B2DE
:2067E000000ADFF8101D21F82700B6B2774810EB4600008980B2000ADFF8C81521F827002A
:20680000B6B2724810EB4600008980B2000ADFF8D41521F82700B6B26C4810EB460040892A
:2068200080B2000ADFF8A01521F82700B6B2674810EB4600408980B2000ADFF8AC1521F842
:206840002700B6B2614810EB4600808980B2000ADFF8781521F82700B6B25C4810EB460089
:20686000808980B2000ADFF8841521F82700B6B2564810EB4600C08980B2000ADFF850151B
:2068800021F82700B6B2514810EB4600C08980B2000ADFF8641C21F827000837DFF8500BE9
:2068A00000780A2190FBF1F201FB120080B2C0000600B6B2454830F816000002B90011F1D1
:2068C000D0410880B6B2414830F816000002464921F82700B6B23D4810EB46004088000227
:2068E000DFF8DC1B21F82700B6B2384810EB4600408800023D4921F82700B6B2334810EBF3
:20690000460080880002DFF8BC1B21F82700B6B22E4810EB4600808800023B4921F827004C
:20692000B6B22A4810EB4600C0880002DFF8B01B21F82700B6B2254810EB4600C0880002B0
:20694000324921F82700B6B2204810EB460000890002DFF8601421F82700B6B21B4810EB8F
:20696000460000890002DFF86C1421F82700B6B2164810EB460040890002DFF83C1421F89D
:206980002700B6B2114810EB460040890002DFF8481405E0060000680A0000680E00006895
:2069A00021F82700B6B2094810EB460080890002DFF8081421F82700B6B2044810EB46006A
:2069C00080890002DFF8141402E000BF7462030821F82700B6B2DFF8240B10EB4600C089F3
:2069E0000002DFF8DC1303E0001000680410006821F82700B6B2DFF8040B10EB4600C089E0
:206A00000002DFF8DC1303E0081000680C10006821F82700B6B2DFF8E40A30F8160080B2EA
:206A2000000ADFF8C01A21F82700B6B2DFF8CC0A30F8160080B2000ADFF8AC1A21F82700EF
:206A4000B6B2DFF8B80A10EB4600408880B2000ADFF8AC1A21F82700B6B2DFF8A00A10EB2F
:206A60004600408880B2000ADFF8801A21F82700B6B2DFF8880A10EB4600808880B2000AC5
:206A8000DFF8801A21F82700B6B2DFF8700A10EB4600808880B2000ADFF8541A21F8270082
:206AA000B6B2DFF8580A10EB4600C08880B2000ADFF8541A21F82700B6B2DFF8400A10EB67
:206AC0004600C08880B2000ADFF8281A21F82700B6B2DFF8280A10EB4600008980B2000A1C
:206AE000B84921F82700B6B2DFF8100A10EB4600008980B2000ABB4921F82700B6B2DFF873
:206B0000FC0910EB4600408980B2000AAE4921F82700B6B2DFF8E40910EB4600408980B28B
:206B2000000AB14921F82700B6B2DFF8D00910EB4600808980B2000AA44921F82700B6B2DE
:206B4000DFF8B80910EB4600808980B2000AA74921F82700B6B2DFF8A40910EB4600C08971
:206B600080B2000A9A4921F82700B6B2DFF88C0910EB4600C08980B2000ADFF87C1921F897
:206B800027000837004801E0C0B2012000784B2840F02E81DFF858088078C00740F1B880AA
:206BA00050200600B6B2DFF8540930F816000002B90011F1D0410880B6B2DFF8400930F87F
:206BC00016000002DFF8441921F82700B6B2DFF82C0910EB460040880002DFF8E41821F8BE
:206BE0002700B6B2DFF8140910EB460040880002DFF81C1921F82700B6B2DFF8000910EB78
:206C0000460080880002DFF8BC1821F82700B6B2DFF8E80810EB460080880002DFF8F418DC
:206C200021F82700B6B2DFF8D40810EB4600C0880002DFF8AC1821F82700B6B2DFF8BC0890
:206C400010EB4600C0880002DFF8CC1821F82700B6B2DFF8A80830F8160080B2000ADFF86E
:206C6000841821F82700B6B2DFF8900830F8160080B2000ADFF8701821F82700B6B2DFF809
:206C80007C0810EB4600408880B2000ADFF8701821F82700B6B2DFF8640810EB46004088D8
:206CA00080B2000ADFF8441821F82700B6B2DFF84C0810EB4600808880B2000ADFF84418DA
:206CC00021F82700B6B2DFF8340810EB4600808880B2000ADFF8181821F82700B6B2DFF8EE
:206CE0001C0810EB4600C08880B2000ADFF8181821F82700B6B2DFF8040810EB4600C08890
:206D000080B2000ADFF8EC1721F827003F1D26E1B80010F1D04000210180DFF8F007002160
:206D200020F82710DFF89807002120F82710DFF8E007002120F82710DFF88807002120F851
:206D40002710DFF8D007002120F82710DFF89007002120F82710DFF8C007002120F82710F2
:206D6000DFF88007002120F82710DFF87C07002120F82710DFF88807002120F82710DFF8CE
:206D80006C07002120F82710DFF87807002120F82710DFF85C07002120F82710DFF868075A
:206DA000002120F82710DFF84C07002120F827103F1DD4E010000068140000681800006845
:206DC0001C00006812000068160000681A0000681E0000681010006814100068181000688B
:206DE0001C10006812100068161000681A10006850200600B6B2DFF8040730F81600000255
:206E0000B90011F1D0410880B6B2DFF8F00630F816000002DFF8F41621F82700B6B2DFF849
:206E2000DC0610EB460040880002DFF8941621F82700B6B2DFF8C40610EB46004088000290
:206E4000DFF8CC1621F82700B6B2DFF8B00610EB460080880002DFF86C1621F82700B6B2F8
:206E6000DFF8980610EB460080880002DFF8A41621F82700B6B2DFF8840610EB4600C0882F
:206E80000002DFF85C1621F82700B6B2DFF86C0610EB4600C0880002DFF87C1621F8270082
:206EA000B6B2DFF8580630F8160080B2000ADFF8341621F82700B6B2DFF8400630F8160097
:206EC00080B2000ADFF8201621F82700B6B2DFF82C0610EB4600408880B2000ADFF8201666
:206EE00021F82700B6B2DFF8140610EB4600408880B2000ADFF8F41521F82700B6B2DFF855
:206F0000FC0510EB4600808880B2000ADFF8F41521F82700B6B2DFF8E40510EB460080885A
:206F200080B2000ADFF8C81521F82700B6B2DFF8CC0510EB4600C08880B2000ADFF8C81598
:206F400021F82700B6B2DFF8B40510EB4600C08880B2000ADFF89C1521F827003F1DDFF839
:206F6000900440780A2190FBF1F080B2C0000600B6B2DFF8880530F816000002B90011F16F
:206F8000D0410880B6B2DFF8740530F816000002DFF8781521F82700B6B2DFF8600510EB1D
:206FA000460040880002DFF8181521F82700B6B2DFF8480510EB460040880002DFF85015AA
:206FC00021F82700B6B2DFF8340510EB460080880002DFF8F01421F82700B6B2DFF81C0533
:206FE00010EB460080880002DFF8281521F82700B6B2DFF8080510EB4600C0880002DFF844
:20700000E01421F82700B6B2DFF8F00410EB4600C0880002DFF8001521F82700B6B2DFF813
:20702000DC0410EB460000890002DFF8781B21F82700B6B2DFF8C40410EB46000089000227
:20704000DFF8641B21F82700B6B2DFF8B00410EB460040890002DFF8541B21F82700B6B2AD
:20706000DFF8980410EB460040890002DFF8401B21F82700B6B2DFF8840410EB460080890E
:207080000002DFF8301B21F82700B6B2DFF86C0410EB460080890002DFF81C1B21F8270043
:2070A000B6B2DFF8580410EB4600C0890002DFF80C1B21F82700B6B2DFF8400410EB4600A7
:2070C000C0890002DFF8F81A21F82700B6B2DFF82C0430F8160080B2000ADFF8081421F847
:2070E0002700B6B2DFF8140430F8160080B2000ADFF8F41321F82700B6B2DFF8000410EB3C
:207100004600408880B2000ADFF8F41321F82700B6B2DFF8E80310EB4600408880B2000A98
:20712000DFF8C81321F82700B6B2DFF8D00310EB4600808880B2000ADFF8C81321F82700D4
:20714000B6B2DFF8B80310EB4600808880B2000ADFF89C1321F82700B6B2DFF8A00310EB0D
:207160004600C08880B2000ADFF89C1321F82700B6B2DFF8880310EB4600C08880B2000AF0
:20718000DFF8701321F82700B6B2DFF8700310EB4600008980B2000ADFF8281A21F8270044
:2071A000B6B2D64810EB4600008980B2000ADFF8181A21F82700B6B2D04810EB4600408970
:2071C00080B2000ADFF8041A21F82700B6B2CB4810EB4600408980B2000ADFF8F41921F880
:2071E0002700B6B2C54810EB4600808980B2000ADFF8E01921F82700B6B2C04810EB4600AC
:20720000808980B2000ADFF8D01921F82700B6B2BA4810EB4600C08980B2000ADFF8BC194D
:2072200021F82700B6B2B54810EB4600C08980B2000AB14921F8270008376D4840780A21D2
:2072400090FBF1F201FB120080B2C0000600B6B2AA4830F816000002B90011F1D0410880CC
:20726000B6B2A64830F816000002A84921F82700B6B2A24810EB460040880002904921F8F8
:207280002700B6B29D4810EB460040880002A04921F82700B6B2994810EB460080880002B2
:2072A000884921F82700B6B2944810EB460080880002984921F82700B6B2904810EB46008C
:2072C000C0880002864921F82700B6B28B4810EB4600C0880002904921F82700B6B287483F
:2072E00010EB460000890002DFF8B81821F82700B6B2824810EB460000890002DFF8A81846
:2073000021F82700B6B27D4810EB460040890002DFF8981821F82700B6B2784810EB4600C4
:2073200040890002DFF8881821F82700B6B2734810EB460080890002DFF8781821F82700B5
:20734000B6B26E4810EB460080890002DFF8681821F82700B6B2694810EB4600C089000287
:20736000DFF8581821F82700B6B2644810EB4600C0890002DFF8481821F82700B6B25F4860
:2073800030F8160080B2000A564921F82700B6B25A4830F8160080B2000A534921F8270034
:2073A000B6B2564810EB4600408880B2000A544921F82700B6B2514810EB4600408880B269
:2073C000000A4A4921F82700B6B24C4810EB4600808880B2000A4B4921F82700B6B2474884
:2073E00010EB4600808880B2000A414902E000BF88B1012021F82700B6B2404810EB460012
:20740000C08880B2000A404921F82700B6B23B4810EB4600C08880B2000A364921F82700B0
:20742000B6B2364810EB4600008980B2000ADFF8941721F82700B6B2304810EB46000089F4
:2074400080B2000ADFF8801721F82700B6B22B4810EB4600408980B2000ADFF8701721F8AA
:207460002700B6B2254810EB4600408980B2000ADFF85C1721F82700B6B2204810EB46002F
:20748000808980B2000ADFF84C1721F82700B6B21A4810EB4600808980B2000ADFF83817B7
:2074A00021F82700B6B2154810EB4600C08980B2000ADFF8281721F82700B6B20F4803E009
:2074C000040000680800006810EB4600C08980B2000A094921F82700083702F056BC00BF76
:2074E0000C0000680200006802100068061000680A1000680E1000681E1000687462030837
:20750000060000680A0000680E0000680010006804100068081000680C100068DC2007001A
:20752000EDB2242D08D0C2F03084262D01F05484C0F02C8602F029BCDFF8E80B00780A215B
:2075400090FBF1F0142148430600B6B2DFF8D80B30F81600DFF8D41B21F82700B6B2DFF854
:20756000C80B10EB46004088B90011F1D0410880B6B2DFF8B40B10EB46008088DFF8B01BF2
:2075800021F82700B6B2DFF8A00B10EB4600C088DFF8A01B21F82700B6B2DFF88C0B10EB95
:2075A00046000089DFF8901B21F82700B6B2DFF8780B10EB46004089DFF8801B21F82700BC
:2075C000B6B2DFF8640B10EB46008089DFF8701B21F82700B6B2DFF8500B10EB4600C089ED
:2075E000DFF8601B21F82700B6B2DFF83C0B10EB4600008ADFF8CC1521F82700B6B2DFF871
:20760000280B10EB4600408ADFF8981521F82700B6B2DFF8140B10EB4600808ADFF8AC1527
:2076200021F82700B6B2DFF8000B10EB4600C08ADFF8781521F82700B6B2DFF8EC0A10EB61
:207640004600008BDFF88C1521F82700B6B2DFF8D80A10EB4600408BDFF8581521F82700F0
:20766000B6B2DFF8C40A10EB4600808BDFF86C1521F82700B6B2DFF8B00A10EB4600C08B94
:20768000DFF8381521F82700B6B2DFF89C0A10EB4600008CDFF8B01A21F82700B6B2DFF8B4
:2076A000880A10EB4600408CDFF8A01A21F82700B6B2DFF8740A10EB4600808CDFF8901ACF
:2076C00021F82700B6B2DFF8600A10EB4600C08CDFF8801A21F82700DFF87C0A002120F8ED
:2076E0002710DFF8780A002120F82710DFF8700A002120F82710DFF86C0A002120F827100C
:20770000DFF8640A002120F82710DFF8600A002120F82710DFF8580A002120F82710DFF883
:20772000540A002120F82710DFF89C04002120F82710DFF87404002120F82710DFF890046A
:20774000002120F82710DFF86804002120F82710DFF88404002120F82710DFF85C040021DF
:2077600020F82710DFF8100A002120F82710DFF85004002120F82710DFF8000A002120F8A4
:207780002710DFF8FC09002120F82710DFF8F409002120F82710DFF8F009002120F82710E2
:2077A0000A37DFF8800900780A2190FBF1F201FB1200142148430600B6B2DFF86C0930F867
:2077C0001600DFF8681921F82700B6B2DFF8580910EB46004088B90011F1D0410880B6B296
:2077E000DFF8440910EB46008088DFF8441921F82700B6B2DFF8300910EB4600C088DFF8D0
:20780000341921F82700B6B2DFF81C0910EB46000089DFF8241921F82700B6B2DFF8080909
:2078200010EB46004089DFF8141921F82700B6B2DFF8F40810EB46008089DFF8041921F868
:207840002700B6B2DFF8E00810EB4600C089DFF8F41821F82700B6B2DFF8CC0810EB4600D9
:20786000008AD84921F82700B6B2DFF8BC0810EB4600408ACB4921F82700B6B2DFF8A808CC
:2078800010EB4600808AD14921F82700B6B2DFF8980810EB4600C08AC44921F82700B6B224
:2078A000DFF8840810EB4600008BCA4921F82700B6B2DFF8740810EB4600408BBD4921F860
:2078C0002700B6B2DFF8600810EB4600808BC34921F82700B6B2DFF8500810EB4600C08B1F
:2078E000B64921F82700B6B2DFF83C0810EB4600008CDFF8541821F82700B6B2DFF8280807
:2079000010EB4600408CDFF8441821F82700B6B2DFF8140810EB4600808CDFF8341821F803
:207920002700B6B2DFF8000810EB4600C08CDFF8241821F82700DFF82008002120F827108A
:20794000DFF81808002120F82710DFF81408002120F82710DFF80C08002120F82710DFF82B
:207960000808002120F82710DFF80008002120F82710DFF8FC07002120F82710DFF8F4071C
:20798000002120F827109048002120F827108648002120F827108E48002120F827108448DF
:2079A000002120F827108C48002120F827108248002120F82710DFF8C007002120F82710CB
:2079C0007F48002120F82710DFF8B007002120F82710DFF8AC07002120F82710DFF8A407F6
:2079E000002120F82710DFF8A007002120F827100A37DFF8100E00784B2840F0F180DFF890
:207A000024078078C0077AD5C8200600B6B2DFF8180730F81600DFF8141721F82700B6B2F9
:207A2000DFF8040710EB46004088B90011F1D0410880B6B2DFF8F00610EB46008088DFF8B2
:207A4000F01621F82700B6B2DFF8DC0610EB4600C088DFF8E01621F82700B6B2DFF8C8061C
:207A600010EB46000089DFF8D01621F82700B6B2DFF8B40610EB46004089DFF8C01621F876
:207A80002700B6B2DFF8A00610EB46008089DFF8B01621F82700B6B2DFF88C0610EB4600A1
:207AA000C089DFF8A01621F82700DFF8AC06002120F82710DFF8A406002120F82710DFF8EF
:207AC000A006002120F82710DFF89806002120F82710DFF89406002120F82710DFF88C0661
:207AE000002120F82710DFF88806002120F82710DFF88006002120F827103F1DEAE0DFF877
:207B00002C06002120F82710DFF84C06002120F82710B80010F1D04000210180DFF83C06A6
:207B2000002120F82710DFF80806002120F82710DFF82C06002120F82710DFF8F805002112
:207B400020F82710DFF81C06002120F82710DFF8E805002120F82710DFF80C06002120F817
:207B60002710DFF8D805002120F82710DFF8FC05002120F82710DFF8C805002120F827104E
:207B8000DFF8EC05002120F82710DFF8B805002120F82710DFF8DC05002120F827103F1D25
:207BA00098E000BF1000006810100068140000681410006818000068181000681C000068F2
:207BC0001C100068120000681210006816000068161000681A0000681A1000681E00006867
:207BE000C8200600B6B2DFF8400530F81600DFF83C1521F82700B6B2DFF82C0510EB4600BC
:207C00004088B90011F1D0410880B6B2DFF8180510EB46008088DFF8181521F82700B6B2F7
:207C2000DFF8040510EB4600C088DFF8081521F82700B6B2DFF8F00410EB46000089DFF8D3
:207C4000F81421F82700B6B2DFF8DC0410EB46004089DFF8E81421F82700B6B2DFF8C80491
:207C600010EB46008089DFF8D81421F82700B6B2DFF8B40410EB4600C089DFF8C81421F86A
:207C80002700DFF8D404002120F82710DFF8CC04002120F82710DFF8C804002120F8271074
:207CA000DFF8C004002120F82710DFF8BC04002120F82710DFF8B404002120F82710DFF8DC
:207CC000B004002120F82710DFF8A804002120F827103F1DDFF84C0440780A2190FBF1F0BB
:207CE000142148430600B6B2DFF83C0430F81600DFF8381421F82700B6B2DFF82C0410EB34
:207D000046004088B90011F1D0410880B6B2DFF8180410EB46008088DFF8141421F827001E
:207D2000B6B2DFF8040410EB4600C088DFF8041421F82700B6B2DFF8F00310EB4600008948
:207D4000DFF8F41321F82700B6B2DFF8DC0310EB46004089DFF8E41321F82700B6B2DFF890
:207D6000C80310EB46008089DFF8D41321F82700B6B2DFF8B40310EB4600C089DFF8C413C2
:207D800021F82700B6B2DFF8A00310EB4600008ADFF8741A21F82700B6B2DFF88C0310EB88
:207DA0004600408ADFF8FC1D21F82700B6B2DFF8780310EB4600808ADFF8501A21F82700FD
:207DC000B6B2DFF8640310EB4600C08ADFF8D81D21F82700B6B2D44810EB4600008BDFF83F
:207DE000301A21F82700B6B2CF4810EB4600408BDFF8B81D21F82700B6B2CB4810EB4600C6
:207E0000808BDFF8101A21F82700B6B2C64810EB4600C08BDFF8981D21F82700B6B2C248D6
:207E200010EB4600008CC84921F82700B6B2BE4810EB4600408CC54921F82700B6B2BA48F1
:207E400010EB4600808CC24921F82700B6B2B64810EB4600C08CBF4921F82700BE48002128
:207E600020F82710BD48002120F82710BC48002120F82710BB48002120F82710BA48002134
:207E800020F82710B948002120F82710B848002120F82710B748002120F82710DFF87809EB
:207EA000002120F82710DFF8540E002120F82710DFF86809002120F82710DFF8440E0021A7
:207EC00020F82710DFF85809002120F82710DFF8340E002120F82710A748002120F82710C3
:207EE000DFF8240E002120F82710A448002120F82710A348002120F82710A248002120F82F
:207F00002710A148002120F827100A37854840780A2190FBF1F201FB12001421484306009E
:207F2000B6B2814830F81600804921F82700B6B27D4810EB46004088B90011F1D04108803F
:207F4000B6B2794810EB46008088794921F82700B6B2754810EB4600C088764921F8270000
:207F6000B6B2714810EB46000089734921F82700B6B26D4810EB46004089704921F82700FA
:207F8000B6B2694810EB460080896D4921F82700B6B2654810EB4600C0896A4921F82700F6
:207FA000B6B2614810EB4600008ADFF85C1821F82700B6B25C4810EB4600408ADFF8E41B6D
:207FC00021F82700B6B2584810EB4600808ADFF83C1821F82700B6B2534810EB4600C08A15
:207FE000DFF8C41B21F82700B6B24F4810EB4600008BDFF81C1821F82700B6B24A4810EB80
:208000004600408BDFF8A41B21F82700B6B2464810EB4600808BDFF8FC1721F82700B6B2A5
:20802000414810EB4600C08BDFF8841B21F82700B6B23D4810EB4600008C434921F82700EF
:20804000B6B2394810EB4600408C404921F82700B6B2354810EB4600808C3D4921F8270069
:20806000B6B2314810EB4600C08C3A4921F827003948002120F827103848002120F82710EE
:208080003748002120F827103648002120F827103548002120F827103448002120F827102A
:2080A0003348002120F827103248002120F82710DFF86407002120F82710DFF8400C0021F5
:2080C00020F82710DFF85407002120F82710DFF8300C002120F82710DFF84407002120F8D1
:2080E0002710DFF8200C002120F827102248002120F82710DFF8100C002120F827101F4832
:20810000002120F827101E48002120F827101D48002120F827101C48002120F827100A372F
:2081200001F033BE88B10120B85D03080200006806000068040000680A00006808000068BD
:208140000E0000680C00006822000068200000682600006824000068021000680010006817
:2081600006100068041000680A100068081000680E1000680C1000681E10006822100068C9
:20818000201000682610006824100068DFF89C0E00780A2190FBF1F0142148430600DFF8E0
:2081A000D00E002120F82710B80010F1D04000210180DFF8C00E002120F82710DFF8CC0E40
:2081C000002120F82710DFF8C80E002120F82710DFF8C00E002120F82710DFF8C00B00213A
:2081E00020F82710DFF8C80E002120F82710DFF81806002120F82710DFF8A809002120F8ED
:208200002710DFF80806002120F82710DFF89809002120F82710DFF8F805002120F82710A6
:20822000DFF88809002120F82710DFF8E805002120F82710DFF87809002120F82710DFF893
:20824000600B002120F82710DFF8580B002120F82710DFF8540B002120F82710DFF84C0BC5
:20826000002120F82710B6B2DFF8440B30F81600DFF8401B21F82700B6B2DFF8340B10EBD7
:2082800046004088DFF8301B21F82700B6B2DFF8200B10EB46008088DFF8201B21F8270069
:2082A000B6B2DFF80C0B10EB4600C088DFF8101B21F82700B6B2DFF8F80A10EB4600008992
:2082C000DFF8001B21F82700B6B2DFF8E40A10EB46004089DFF8F01A21F82700B6B2DFF8D5
:2082E000D00A10EB46008089DFF8E01A21F82700B6B2DFF8BC0A10EB4600C089DFF8D01AF9
:2083000021F82700B6B2DFF8A80A10EB4600008ADFF8041521F82700B6B2DFF8940A10EB59
:208320004600408ADFF8D41921F82700B6B2DFF8800A10EB4600808ADFF8E01421F827000A
:20834000B6B2DFF86C0A10EB4600C08ADFF8B01921F82700B6B2DFF8580A10EB4600008B90
:20836000DFF8BC1421F82700B6B2DFF8440A10EB4600408BDFF88C1921F82700B6B2DFF882
:20838000300A10EB4600808BDFF8B81E21F82700B6B2DFF81C0A10EB4600C08BDFF8681921
:2083A00021F82700B6B2DFF8080A10EB4600008CDFF8941E21F82700B6B2DFF8F40910EB5F
:2083C0004600408CDFF8841E21F82700B6B2DFF8E00910EB4600808CDFF8741E21F82700B4
:2083E000B6B2DFF8CC0910EB4600C08CDFF8E41921F827000A37DFF8340C00780A2190FB42
:20840000F1F201FB1200142148430600DFF8600C002120F82710B80010F1D0400021018087
:20842000DFF8500C002120F82710DFF8600C002120F82710DFF8580C002120F82710DFF864
:20844000540C002120F82710DFF85009002120F82710DFF85C0C002120F82710EA480021AA
:2084600020F82710DFF83C07002120F82710E748002120F82710DFF83007002120F8271006
:20848000E348002120F82710DFF82007002120F82710E048002120F82710DFF81407002128
:2084A00020F82710DFF8F808002120F82710DFF8F408002120F82710DFF8EC08002120F8DF
:2084C0002710DFF8E808002120F82710B6B2DFF8E00830F81600DFF8DC1821F82700B6B256
:2084E000DFF8CC0810EB46004088DFF8CC1821F82700B6B2DFF8B80810EB46008088DFF8AE
:20850000BC1821F82700B6B2DFF8A40810EB4600C088DFF8AC1821F82700B6B2DFF8900821
:2085200010EB46000089DFF89C1821F82700B6B2DFF87C0810EB46004089DFF88C1821F845
:208540002700B6B2DFF8680810EB46008089DFF87C1821F82700B6B2DFF8540810EB460074
:20856000C089DFF86C1821F82700B6B2DFF8400810EB4600008AA84921F82700B6B2DFF855
:20858000300810EB4600408ADFF8701721F82700B6B2DFF81C0810EB4600808A9F4921F84B
:2085A0002700B6B2DFF8080810EB4600C08ADFF8501721F82700B6B2DFF8F40710EB4600C1
:2085C000008B974921F82700B6B2DFF8E40710EB4600408BDFF82C1721F82700B6B2DFF821
:2085E000D00710EB4600808BDFF8581C21F82700B6B2DFF8BC0710EB4600C08BDFF8081749
:2086000021F82700B6B2DFF8A80710EB4600008CDFF8341C21F82700B6B2DFF8940710EB23
:208620004600408CDFF8241C21F82700B6B2DFF8800710EB4600808CDFF8141C21F8270077
:20864000B6B2DFF86C0710EB4600C08CDFF8841721F827000A376B4800784B2840F0E280B8
:20866000DFF8C8098078C0077AD5C8200600DFF8000A002120F82710B80010F1D04000211B
:208680000180DFF8F009002120F82710DFF8FC09002120F82710DFF8F809002120F8271085
:2086A000DFF8F009002120F82710DFF8F006002120F82710DFF8F809002120F82710B6B28D
:2086C000DFF8EC0630F81600DFF8E81621F82700B6B2DFF8DC0610EB46004088DFF8D8168F
:2086E00021F82700B6B2DFF8C80610EB46008088DFF8C81621F82700B6B2DFF8B40610EBFB
:208700004600C088DFF8B81621F82700B6B2DFF8A00610EB46000089DFF8A81621F8270062
:20872000B6B2DFF88C0610EB46004089DFF8981621F82700B6B2DFF8780610EB4600808992
:20874000DFF8881621F82700B6B2DFF8640610EB4600C089DFF8781621F827003F1DDBE075
:20876000DFF80C09002120F82710DFF84806002120F82710B80010F1D04000210180DFF8C6
:208780003806002120F82710DFF8E808002120F82710DFF82806002120F82710DFF8EC08B4
:2087A000002120F82710DFF81806002120F82710DFF8DC08002120F82710DFF808060021B3
:2087C00020F82710DFF8CC08002120F82710DFF8F805002120F82710DFF8C005002120F816
:2087E0002710DFF8E805002120F82710DFF8C008002120F82710DFF8D805002120F82710DB
:208800003F1D89E0C0B2012012000068160000681A0000681E0000681210006816100068E8
:208820001A100068C8200600DFF84408002120F82710B80010F1D04000210180DFF83408A7
:20884000002120F82710DFF84408002120F82710DFF83C08002120F82710DFF83808002152
:2088600020F82710DFF83405002120F82710DFF84008002120F82710B6B2DFF8340530F8FA
:208880001600DFF8301521F82700B6B2DFF8200510EB46004088DFF8201521F82700B6B245
:2088A000DFF80C0510EB46008088DFF8101521F82700B6B2DFF8F80410EB4600C088DFF8B0
:2088C000001521F82700B6B2DFF8E40410EB46000089DFF8F01421F82700B6B2DFF8D00424
:2088E00010EB46004089DFF8E01421F82700B6B2DFF8BC0410EB46008089DFF8D01421F846
:208900002700B6B2DFF8A80410EB4600C089DFF8C01421F827003F1DDFF8100740780A21A3
:2089200090FBF1F0142148430600DFF84407002120F82710B80010F1D04000210180DFF831
:208940003407002120F82710DFF84007002120F82710DFF83C07002120F82710DFF8340742
:20896000002120F82710DFF83404002120F82710DFF83C07002120F82710DFF8800C0021FA
:2089800020F827108748002120F82710DFF8700C002120F827108448002120F82710DFF873
:2089A000640C002120F827108048002120F82710DFF8540C002120F827107D48002120F8FA
:2089C0002710DFF8DC03002120F82710DFF8D403002120F82710DFF8D003002120F8271002
:2089E000DFF8C803002120F82710B6B2DFF8C00330F81600DFF8BC1321F82700B6B2DFF800
:208A0000B00310EB46004088DFF8AC1321F82700B6B2DFF89C0310EB46008088DFF89C1317
:208A200021F82700B6B2DFF8880310EB4600C088DFF88C1321F82700B6B2DFF8740310EB3C
:208A400046000089DFF87C1321F82700B6B2D84810EB46004089DFF8701321F82700B6B20D
:208A6000D34810EB46008089D84921F82700B6B2CF4810EB4600C089D54921F82700B6B261
:208A8000CB4810EB4600008ADFF8801B21F82700B6B2C74810EB4600408A984921F82700A3
:208AA000B6B2C34810EB4600808ADFF8641B21F82700B6B2BE4810EB4600C08A904921F877
:208AC0002700B6B2BA4810EB4600008BDFF8441B21F82700B6B2B64810EB4600408B89497F
:208AE00021F82700B6B2B24810EB4600808BDFF8541721F82700B6B2AD4810EB4600C08B1D
:208B0000814921F82700B6B2A94810EB4600008CDFF8341721F82700B6B2A54810EB46002D
:208B2000408CDFF8281721F82700B6B2A04810EB4600808CDFF8181721F82700B6B29C48E4
:208B400010EB4600C08CA34921F827000A37DFF8DC0440780A2190FBF1F201FB12001421D0
:208B600048430600DFF80805002120F82710B80010F1D04000210180DFF8F804002120F899
:208B80002710DFF80805002120F82710DFF80005002120F82710DFF8FC04002120F82710B7
:208BA0007E4807E01000006814000068180000681C000068002120F82710DFF8F4040021B0
:208BC00020F82710DFF8340A002120F82710DFF8480A002120F82710DFF8240A002120F8EA
:208BE0002710DFF8380A002120F82710DFF8140A002120F82710DFF8280A002120F82710D7
:208C0000DFF8040A002120F82710DFF8180A002120F827106248002120F8271061480021B2
:208C200020F827106048002120F827105F48002120F82710B6B25E4830F816005D4921F8AB
:208C40002700B6B25A4810EB460040885A4921F82700B6B2564810EB46008088574921F8EF
:208C60002700B6B2524810EB4600C088544921F82700B6B24E4810EB46000089514921F8EA
:208C80002700B6B24A4810EB460040894E4921F82700B6B2464810EB460080894B4921F8E5
:208CA0002700B6B2424810EB4600C089484921F82700B6B23E4810EB4600008ADFF84C194B
:208CC00021F82700B6B23A4810EB4600408A0B4921F82700B6B2364810EB4600808ADFF8C3
:208CE000301921F82700B6B2314810EB4600C08A034921F82700B6B22D4807E010100068A7
:208D000014100068181000681C10006810EB4600008BDFF8001921F82700B6B2244810EBD8
:208D20004600408BDFF8001921F82700B6B2204810EB4600808BDFF80C1521F82700B6B236
:208D40001B4810EB4600C08BDFF8E01821F82700B6B2174810EB4600008CDFF8EC1421F891
:208D60002700B6B2124810EB4600408CDFF8DC1421F82700B6B20E4810EB4600808CDFF814
:208D8000D01421F82700B6B2094810EB4600C08C104921F827000A3700F0F7BF0E00006873
:208DA00022000068200000682600006824000068B85D0308021000680010006806100068F7
:208DC000041000680A100068081000680E1000680C10006824100068944800780A2190FB65
:208DE000F1F0142148430600B6B2DFF8440830F816009F4921F82700B6B2DFF8340830F838
:208E00001600DFF8941E21F82700B6B2DFF8200810EB46004088B90011F1D0410880B6B247
:208E2000DFF80C0810EB46004088DFF88C1E21F82700B6B2DFF8F80710EB460080888D4920
:208E400021F82700B6B2DFF8E80710EB46008088DFF8841E21F82700B6B2DFF8D40710EB8D
:208E60004600C088894921F82700B6B2DFF8C00710EB4600C088DFF8781E21F82700B6B2AE
:208E8000DFF8AC0710EB46000089814921F82700B6B2DFF89C0710EB46000089DFF8781E5B
:208EA00021F82700B6B2DFF8880710EB46004089784921F82700B6B2DFF8740710EB46009E
:208EC0004089DFF86C1E21F82700B6B2DFF8600710EB46008089DFF85C1E21F82700B6B23F
:208EE000DFF84C0710EB46008089DFF84C1E21F82700B6B2DFF8380710EB4600C0896C49C0
:208F000021F82700B6B2DFF8280710EB4600C089DFF8201721F82700B6B2DFF8140710EB76
:208F20004600008ADFF8D41621F82700B6B2DFF8000710EB4600008ADFF8D01621F8270052
:208F4000B6B2DFF8EC0610EB4600408ADFF8C81621F82700B6B2DFF8D80610EB4600408AB8
:208F6000DFF81C1E21F82700B6B2DFF8C40610EB4600808ADFF8881621F82700B6B2DFF858
:208F8000B00610EB4600808ADFF8841621F82700B6B2DFF89C0610EB4600C08ADFF87C164A
:208FA00021F82700B6B2DFF8880610EB4600C08ADFF83C1E21F82700B6B2DFF8740610EBF4
:208FC0004600008BDFF83C1621F82700B6B2DFF8600610EB4600008BDFF8381621F8270081
:208FE000B6B2DFF84C0610EB4600408BDFF8301621F82700B6B2DFF8380610EB4600408BEE
:20900000DFF8241621F82700B6B2DFF8240610EB4600808BDFF8F01521F82700B6B2DFF8EF
:20902000100610EB4600808B864901E088B1012021F82700B6B2DFF8F80510EB4600C08BBC
:20904000DFF8E01521F82700B6B2DFF8E40510EB4600C08BDFF8D41521F82700B6B2DFF811
:20906000D00510EB4600008CDFF8881D04E000BF020000680600006821F82700B6B2DFF8D8
:20908000B00510EB4600008C6F4905E0040000680A0000680800006821F82700B6B2DFF8E4
:2090A000900510EB4600408CDFF84C1D02E000BF0C00006821F82700B6B2DFF8740510EBC6
:2090C0004600408C614921F82700B6B2DFF8600510EB4600808CDFF8241D21F82700B6B2E3
:2090E000DFF84C0510EB4600808C594921F82700B6B2DFF83C0510EB4600C08CDFF8001D18
:2091000021F82700B6B2DFF8280510EB4600C08CDFF8F01C21F827000A37DFF8EC0C00786B
:209120000A2190FBF1F201FB1200142148430600B6B2DFF8FC0430F81600DFF8D01C21F869
:209140002700B6B2DFF8E80430F81600DFF8481B21F82700B6B2DFF8D80410EB46004088E1
:20916000B90011F1D0410880B6B2DFF8C40410EB46004088DFF8401B21F82700B6B2DFF8DA
:20918000B00410EB46008088DFF8841C21F82700B6B2DFF89C0410EB46008088DFF8381BC9
:2091A00021F82700B6B2DFF8880410EB4600C088DFF8601C21F82700B6B2DFF8740410EBD6
:2091C0004600C088DFF8281B21F82700B6B2DFF8600410EB46000089DFF83C1C21F82700CB
:2091E000B6B2DFF84C0410EB46000089DFF8281B21F82700B6B2DFF8380410EB4600408937
:20920000DFF8181C21F82700B6B2DFF8240410EB46004089DFF8181B21F82700B6B2DFF809
:20922000100410EB46008089DFF8081B21F82700B6B2DFF8FC0310EB46008089DFF8F81A25
:2092400008E000BF1E10006822100068201000682610006821F82700B6B2DFF8D40310EBB0
:209260004600C089DFF8B81B21F82700B6B2DFF8C00310EB4600C089DFF8B81321F8270007
:20928000B6B2DFF8AC0310EB4600008ADB4921F82700B6B2DFF8980310EB4600008ADB49E8
:2092A00021F82700B6B2DFF8880310EB4600408AD94921F82700B6B2DD4810EB4600408A9F
:2092C000DFF8BC1A21F82700B6B2D94810EB4600808ACB4921F82700B6B2D54810EB4600B3
:2092E000808ACB4921F82700B6B2D14810EB4600C08ACA4921F82700B6B2CD4810EB4600F3
:20930000C08ADFF8EC1A21F82700B6B2C84810EB4600008BBB4921F82700B6B2C44810EBEF
:209320004600008BBB4921F82700B6B2C04810EB4600408BBA4921F82700B6B2BC4810EBF2
:209340004600408BB84921F82700B6B2B84810EB4600808BAC4921F82700B6B2B44810EB73
:209360004600808BDFF8BC1A21F82700B6B2B04810EB4600C08BAB4921F82700B6B2AC4833
:2093800010EB4600C08BA94921F82700B6B2A84810EB4600008CDFF85C1A21F82700B6B2F5
:2093A000A34810EB4600008CDFF87C1A21F82700B6B29F4810EB4600408CDFF83C1A21F8A6
:2093C0002700B6B29A4810EB4600408CDFF85C1A21F82700B6B2964810EB4600808CDFF818
:2093E0001C1A21F82700B6B2914810EB4600808CDFF83C1A21F82700B6B28D4810EB46007E
:20940000C08CDFF8FC1921F82700B6B2884810EB4600C08CDFF8EC1921F827000A37DFF8DB
:20942000140A00784B2840F00781DFF8DC098078C00740F19180C8200600B6B27C4830F86C
:209440001600DFF8C81921F82700B6B2784830F81600DFF8441821F82700B6B2744810EB06
:2094600046004088B90011F1D0410880B6B2704810EB46004088DFF8401821F82700B6B28A
:209480006B4810EB46008088DFF8841921F82700B6B2674810EB46008088DFF83C1821F878
:2094A0002700B6B2624810EB4600C088DFF8641921F82700B6B25E4810EB4600C088DFF8E8
:2094C000301821F82700B6B2594810EB46000089DFF8441921F82700B6B2554810EB460077
:2094E0000089DFF8341821F82700B6B2504810EB46004089DFF8241921F82700B6B24C4826
:2095000010EB46004089DFF8281821F82700B6B2474810EB46008089DFF8181821F8270062
:20952000B6B2434810EB46008089DFF80C1821F82700B6B23E4810EB4600C089DFF8E0186C
:2095400021F82700B6B23A4810EB4600C089394921F827003F1D10E1DFF8B008002120F880
:209560002710DFF83407002120F82710B80010F1D04000210180DFF84007002120F8271039
:20958000DFF88C08002120F82710DFF84C07002120F82710DFF87C08002120F82710DFF8B4
:2095A0005007002120F82710DFF86C08002120F82710DFF86407002120F82710DFF85C083C
:2095C000002120F82710DFF86807002120F82710DFF86007002120F82710DFF85C0700215C
:2095E00020F82710DFF83808002120F827101148002120F827103F1DBFE000BF1200006898
:20960000160000681A0000681E00006812100068161000681A100068100000681400006826
:20962000180000681C000068181000681C100068B85D03080C100068C8200600B6B2DFF831
:20964000F80730F81600DFF8C41721F82700B6B2DFF8E40730F81600DFF83C1621F827000A
:20966000B6B2DFF8D40710EB46004088B90011F1D0410880B6B2DFF8C00710EB4600408864
:20968000DFF8341621F82700B6B2DFF8AC0710EB46008088DFF8781721F82700B6B2DFF849
:2096A000980710EB46008088DFF82C1621F82700B6B2DFF8840710EB4600C088DFF85417D4
:2096C00021F82700B6B2DFF8700710EB4600C088DFF81C1621F82700B6B2DFF85C0710EB25
:2096E00046000089DFF8301721F82700B6B2DFF8480710EB46000089DFF81C1621F827009C
:20970000B6B2DFF8340710EB46004089DFF80C1721F82700B6B2DFF8200710EB460040891B
:20972000DFF80C1621F82700B6B2DFF80C0710EB46008089DFF8FC1521F82700B6B2DFF8ED
:20974000F80610EB46008089DFF8EC1521F82700B6B2DFF8E40610EB4600C089DFF8C01649
:2097600021F82700B6B2DFF8D00610EB4600C089DFF8C81621F827003F1DDFF88C06407898
:209780000A2190FBF1F0142148430600B6B2DFF8A80630F81600DFF8741621F82700B6B238
:2097A000DFF8940630F81600DFF8EC1421F82700B6B2DFF8840610EB46004088B90011F156
:2097C000D0410880B6B2DFF8700610EB46004088DFF8E41421F82700B6B2DFF85C0610EB87
:2097E00046008088DFF8281621F82700B6B2DFF8480610EB46008088DFF8DC1421F82700E9
